:100000000C9423180C9454180C9454180C945418F1
:100010000C9454180C9454180C9454180C945418B0
:100020000C9454180C9454180C9454180C945418A0
:100030000C9454180C9454180C9454180C94541890
:100040000C9454180C94B6800C9454180C945418B6
:100050000C9454180C9454180C943D7D0C94FCEAA8
:100060000C9454180C94016C0C94ED6B0C94541873
:100070000C9454180C9454180C9454180C94541850
:100080000C9454180C9454180C9454180C94541840
:100090000C9454180C9454180C9454180C94541830
:1000A0000C9454180C9454180C9454180C94541820
:1000B0000C9454180C9454180C9454180C94541810
:1000C0000C9454180C9454180C9454180C94541800
:1000D0000C9454180C9454180C943E360C94F76BF2
:1000E0000C945418084AD73B3BCE016E84BCBFFD2C
:1000F000C12F3D6C74319ABD56833DDA3D00C77FF8
:1001000011BED9E4BB4C3E916BAAAABE0000008090
:100110003F05A84CCDB2D44EB93836A9020C50B91F
:10012000918688083CA6AAAA2ABE000000803F004B
:100130000C94C4E90C9456720C94A8770C947771C3
:100140000C94C0410C947AAB0C9407740C94EECCD4
:100150000C9429770C9458E90C94CB220C9437E931
:100160000C94E8230C94986D0C9456180C947EAB68
:100170000C94D8770C941C1E0C9403CA0C949A739C
:100180000C94DEC90C9484E90C9485290C941DA56B
:100190000C94D4180C94EA9E0C946E710C94E1ACFF
:1001A0000C9432E90C94D7E90C9423C70C94D7181B
:1001B0000C9492410C94D3C20C947B420C94F77231
:1001C0000C9418770C9430A00C9482C90C940024E1
:1001D0000C9433770C94CFC20C94DCC90C94F67752
:1001E0000C94F4230C941E770C9479190C9405CA82
:1001F0000C9467430C94C7760C9481190C9402CB31
:100200000C947B190C94B7240C94BD760C9448C4C0
:100210000C940F720C947B1C0C947F190C94E87353
:100220000C9424A10C9454C90C94C2320C948719D8
:100230000C94BA450C9482730C9468740C94C97332
:100240000C9469180C946CE90C9466FC0C9483195A
:100250000C9472260C9434730C9493770C94D4B44D
:100260000C9472200C9424770C947D190C944A2DD4
:100270000C94D5710C9412770C94A9C90C94759EAA
:100280000C9476E90C94847D0C9411AD0C941F733E
:100290000C9486810C94E2230C949B180C94FA2302
:1002A0000C94AEB20C948E730C9456740C9494739C
:1002B0000C949CB00C9481B60C94C2760C9470E9AA
:1002C0000C94EE950C94E7770C94A5C90C945B7193
:1002D0000C9488E90C948B770C9415C70C948218B5
:1002E0000C94EE710C94972A0C94E22B0C9462E916
:1002F0000C9401720C94C9710C94B5450C944C7318
:100300000C9456EB0C94D9430C9443720C9451E921
:100310000D94FD030C9488730C94D51D0C9480C926
:100320000C942E770C947D450C9455E90C947EE941
:100330000C94CC760C9477190C9411A50C94CECE19
:100340000C9409B40C94B6710C9438770C9498CC36
:100350000C940CCE0C9444730C94C0770C948519B7
:100360000C94DC230C94EE230C94FDCC0C9478C6F6
:100370000C94E0C90C94FAC60C94F9720C9422C740
:100380000C947AE90C94381C0C9449E90C945EE9BD
:100390000C94CDC60C9409CB0C944DE90C942872A6
:1003A0000C9401CA0C94A7C90C9438710C9417448E
:1003B0000C9468E94E414E494E495459494E46CD38
:1003C000CCCC3D0AD7233C17B7D13877CC2B32950C
:1003D00095E6241FB14F0A000020410000C84200EA
:1003E000401C4620BCBE4CCA1B0E5AAEC59D7400B4
:1003F000407A10F35A00A0724E18090010A5D4E8F4
:100400000000E87648170000E40B54020000CA9A86
:100410003B000000E1F505000080969800000040D8
:10042000420F000000A0860100000010270000001D
:1004300000E803000000006400000000000A000063
:100440000000000100000000002C76D888DC674F17
:100450000823DFC1DFAE59E1B1B796E5E3E453C647
:100460003AE651997696E8E6C28426EB898C9B623F
:10047000ED407C6FFCEFBC9C9F40F2BAA56FA5F4E9
:1004800090055A2AF75C936B6CF9676DC11BFCE011
:10049000E40D47FEF520E6B500D0ED902E03009464
:1004A0003577050080841E080000204E0A000000F9
:1004B000C80C333333330F986E12831141EF8D2103
:1004C00014893BE65516CFFEE6DB18D1844B381B6A
:1004D000F77C1D901DA4BBE424203284725E22812F
:1004E00000C9F124ECA1E53D27434F4D4D554E4940
:1004F000434154494F4E0044525952554E004552C3
:10050000524F525300494E464F004543484F004515
:1005100072726F722077726974696E6720746F20CF
:10052000454550524F4D210A002121204B494C4C4A
:100530002063617573656420627920746F6F206D2C
:1005400075636820696E6163746976652074696D8E
:1005500065202D2063757272656E7420636F6D6DFA
:10056000616E643A20005046543A696F6572726F4A
:10057000720A005046543A737563636573730A00D8
:100580005054463A696E76616C69640A005046546C
:100590003A696E76616C69640A005046543A666145
:1005A000696C0A005046543A627573790A003A63DE
:1005B0006F6D70726573696F6E3A686561747368A8
:1005C00072696E6B2C005046543A76657273696F8F
:1005D0006E3A00556E737570706F72746564204268
:1005E000696E6172792050726F746F636F6C0A006C
:1005F000556E6B6E6F776E2042696E6172795072C4
:100600006F746F636F6C436F6E74726F6C205061A8
:10061000636B65740A00666500446174617374728B
:1006200065616D2074696D656F75740A005265733C
:10063000656E642072657175657374200029207081
:1006400061796C6F616420636F72727570740A00F7
:100650005061636B657428004461746173747265E2
:10066000616D207061636B657420646174612062E8
:100670007566666572206F76657272756E0A003FE8
:100680002920636F72727570740A005061636B6524
:1006900074206865616465722800446174617374D4
:1006A0007265616D207061636B6574206F75742075
:1006B0006F66206F726465720A007373004D343187
:1006C00030004D313132004D3130380053544F50ED
:1006D0005045442E20005072696E74657220737408
:1006E0006F707065642064756520746F2065727228
:1006F0006F72732E20466978207468652065727267
:100700006F7220616E6420757365204D3939392010
:10071000746F20726573746172742E202854656D35
:100720007065726174757265206973207265736596
:10073000742E20536574206974206166746572207C
:1007400072657374617274696E67290A004E6F2056
:10075000436865636B73756D2077697468206C6995
:100760006E65206E756D6265722C204C617374200D
:100770004C696E653A2000636865636B73756D2024
:100780006D69736D617463682C204C617374204CC7
:10079000696E653A20004C696E65204E756D626524
:1007A00072206973206E6F74204C617374204C69E1
:1007B0006E65204E756D6265722B312C204C617315
:1007C00074204C696E653A20004D3131300053443D
:1007D0002072656164206572726F720A00627573BF
:1007E000793A2070617573656420666F7220696E56
:1007F0007075740A00627573793A2070617573655B
:100800006420666F7220757365720A006275737971
:100810003A2070726F63657373696E670A004D6585
:100820006469612052656D6F766564004D65646929
:100830006120496E73657274656400506C65617304
:1008400065205265736574005052494E54455220DC
:1008500048414C5445440025533A202553004B4908
:100860004C4C45442E20005072696E7465722068AD
:10087000616C7465642E206B696C6C28292063613F
:100880006C6C6564210A006563686F3A004572729A
:100890006F723A000A4D6561737572656420706FFE
:1008A000696E74733A0A00337833206D6573682E6D
:1008B000205A206F66667365743A20004F46460AD8
:1008C0000046616465204865696768742000466178
:1008D000696C656420746F20656E61626C6520428E
:1008E0006564204C6576656C696E670A004D6573BA
:1008F0006820426564204C6576656C206461746193
:100900003A0A00496E76616C6964206D6573682EE1
:100910000A00206E6F7420656E74657265642E0A1D
:1009200000206F6620004D424C2047323920706F06
:10093000696E7420004A206F7574206F66207261A2
:100940006E67652028302D0049206F7574206F6612
:100950002072616E67652028302D004D6573682018
:1009600070726F62696E6720646F6E652E0A005345
:1009700074617274206D6573682070726F62696E45
:10098000672077697468202247323920533122204A
:1009900066697273742E0A004732380A473239206A
:1009A000533200686173206E6F20646174612E0A97
:1009B000004D65736820426564204C6576656C69FE
:1009C0006E67200053206F7574206F662072616E11
:1009D00067652028302D35292E0A003F28422961DD
:1009E0007564207261746520696D706C61757369DE
:1009F000626C652E0A002062617564207261746504
:100A00002073657420746F20002053657269616CD7
:100A1000200020496E76616C696420657874727577
:100A20006465722000536C6565702E2E2E004D6536
:100A3000736820706F696E74206F7574206F662004
:100A400072616E67650A00436C69636B20746F2086
:100A5000526573756D652E2E2E004E6F204D6F768C
:100A6000652E00456E642066696C65206C69737440
:100A70000A00426567696E2066696C65206C69735F
:100A8000740A004E6F206D656469610A00286E6FFC
:100A90002066696C65290043757272656E74206604
:100AA000696C653A20005344207072696E74696EF7
:100AB00067206279746520004E6F74205344207063
:100AC00072696E74696E670A005377697463686946
:100AD0006E6720746F2042696E6172792050726F68
:100AE000746F636F6C0A002569792025696420257D
:100AF00069682025696D20256973005072696E74DC
:100B00002074696D653A20006F6666004445425561
:100B1000473A004D3131322053687574646F776EF7
:100B2000004D313133205300556C74696D616B6534
:100B300072204F46462E004348414D4245525F5475
:100B4000454D50455241545552450042414259533A
:100B500054455050494E470041524353004D4F5465
:100B6000494F4E5F4D4F44455300544845524D4107
:100B70004C5F50524F54454354494F4E004C4F4EDA
:100B8000475F46494C454E414D45004155544F52F3
:100B900045504F52545F53445F5354415455530092
:100BA0005344434152440050524F4D50545F5355AB
:100BB00050504F525400454D455247454E43595FA2
:100BC00050415253455200434153455F4C494748B9
:100BD000545F4252494748544E45535300544F477F
:100BE000474C455F4C494748545300534F46545770
:100BF0004152455F504F574552004255494C445F62
:100C000050455243454E54004C4556454C494E477D
:100C10005F44415441005A5F50524F424500525583
:100C20004E4F5554004155544F4C4556454C00507D
:100C300052494E545F4A4F420050524F475245531B
:100C400053004155544F5245504F52545F54454DF7
:100C50005000564F4C554D45545249430042494E61
:100C60004152595F46494C455F5452414E534645A7
:100C7000520053455249414C5F584F4E5F584F46C2
:100C800046004649524D574152455F4E414D453A07
:100C90004D61726C696E20322E302E372E32202834
:100CA00041707220313220323032312031363A31C7
:100CB000323A35312920534F555243455F434F4413
:100CC000455F55524C3A68747470733A2F2F6769B8
:100CD000746875622E636F6D2F556C74696D616BEE
:100CE00065722F4D61726C696E2050524F544F43A4
:100CF0004F4C5F56455253494F4E3A312E30204D9E
:100D0000414348494E455F545950453A556C7469C2
:100D10006D616B65722045585452554445525F438E
:100D20004F554E543A3120555549443A63656465F0
:100D3000326132662D343161322D343734382D39F9
:100D40006231322D63353563363266333637666647
:100D50000A002F2F20004D31343520533C696E643A
:100D600065783E206F7574206F662072616E6765CE
:100D70002028302D31290A00416363656C6572615A
:100D800074696F6E3A2050003F4A206F7574206F6F
:100D9000662072616E67652028302E303120746FB6
:100DA00020302E33290A0020204D61783A2000207F
:100DB000204D696E3A2000536F667420656E64732F
:100DC000746F70733A200046523A0020466C6F7779
:100DD0003A20004D424C2041646A757374205A00D9
:100DE00020643A0020693A0020703A00496E76612A
:100DF0006C69642065787472756465720A00646950
:100E0000730043290A0061626C656420286D696E75
:100E10002074656D702000436F6C64206578747277
:100E2000756465732061726520004D34323120692C
:100E30006E636F727265637420706172616D657448
:100E400065722075736167650A00486F6D652025BE
:100E50007325732573204669727374004F66667339
:100E6000657473204170706C696564004572723AF4
:100E700020546F6F206661722100546F6F2066618D
:100E8000722066726F6D207265666572656E63654D
:100E900020706F696E740A00454550524F4D204FC7
:100EA0004B0A002028302D313029002076616C75E6
:100EB00065206F7574206F662072616E67650041F2
:100EC0006476616E6365204B3D00446F6E652070F3
:100ED00072696E74696E672066696C650A004D37C9
:100EE00037004D3331004361703A0047322F4733AA
:100EF0002062616420706172616D65746572730A4D
:100F000000656E7175657565696E672022006F6B8F
:100F100000526573656E643A200020573A00436FB3
:100F20006F6C696E672E2E2E0048656174696E675E
:100F30002E2E2E00452025530023646566696E65BC
:100F40002044454641554C545F004B6420004B699A
:100F500020004B702000504944204175746F747517
:100F60006E652066696E69736865642120507574CA
:100F700020746865206C617374204B702C204B6961
:100F800020616E64204B6420636F6E7374616E74B5
:100F9000732066726F6D2062656C6F7720696E7466
:100FA0006F20436F6E66696775726174696F6E2E2C
:100FB000680A00504944204175746F74756E65204D
:100FC0006661696C6564212074696D656F75740A6A
:100FD00000504944204175746F74756E65206661D8
:100FE000696C6564212054656D70657261747572F9
:100FF0006520746F6F20686967680A00204B643A47
:101000002000204B693A2000204B703A20000A2033
:10101000436C617373696320504944200A00205473
:10102000753A2000204B753A2000206D61783A20F7
:1010300000206D696E3A200020643A200020626929
:1010400061733A2000504944204175746F74756E85
:10105000652073746172740A0050494420417574AC
:101060006F74756E6500504944204175746F7475D6
:101070006E65206661696C6564212042616420654B
:1010800078747275646572206E756D6265720A009F
:101090002D2D2D2D2D2D007C4D61726C696E7C00E7
:1010A000456E636C6F737572650046696C2E2044E3
:1010B00069612E004520696E206D6DC2B30020026B
:1010C0002046616374002002204D617800200220D8
:1010D0004D696E004175746F74656D700056547281
:1010E0006176204D696E00566D696E00566D6178AF
:1010F000204500566D6178205A00566D6178205960
:1011000000566D6178205800416D6178204500419E
:101110006D6178205A00416D6178205900416D6100
:1011200078205800412D54726176656C00412D5233
:1011300065747261637400416363656C004520737C
:10114000746570732F6D6D005A2053746570732F22
:101150006D6D00592053746570732F6D6D005820AC
:1011600053746570732F6D6D00496E6974004D3452
:1011700032380046696C616D656E74004A756E6345
:1011800074696F6E2044657600416363656C6572B7
:101190006174696F6E0056656C6F63697479005392
:1011A000657420486F6D65204F66667365747300C3
:1011B0000A050505FE04F704E904A1000000690022
:1011C000A20000006300B00000000900C1000000A0
:1011D0004100C20000004100C30000004100C40003
:1011E00000004100C50000004100C600000041456C
:1011F000C70000004300C80000004500C90000000F
:101200004500CD0000004900D10000004E00D5008F
:1012100000004F00D60000004F00D700000078000B
:10122000DC0000005500DD0000005900E000000077
:101230006100E10000006100E20000006100E300E5
:1012400000006100E40000006100E50000006100B2
:10125000E60000006165E70000006300E8000000B0
:101260006500E90000006500EA0000006500EB0091
:1012700000006500EC0000006900ED00000069005E
:10128000EE0000006900EF0000006900F1000000BE
:101290006E00F20000006F00F30000006F00F40029
:1012A00000006F00F50000006F00F60000006F0006
:1012B000F80000006F00F90000007500FA0000005F
:1012C0007500FB0000007500FC0000007500FD00CB
:1012D00000007900FF0000007900040100004100D7
:1012E0000501000061000601000043000701000045
:1012F00063000C01000043000D01000063000E01BB
:10130000000044000F0100006400110100006400AF
:101310001901000065001A01000045001B010000D2
:1013200065001F0100006700300100004900310125
:1013300000006900410100004C00420100006C0007
:10134000430100004E00440100006E00480100000F
:101350006E005801000052005901000072005A014D
:10136000000053005B01000073005F010000730088
:10137000600100005300610100007300650100007E
:1013800074006F01000075007C0100007A007D018F
:1013900000005A007E0100007A0092010000660001
:1013A000E30200007800222000002E001E21000031
:1013B000507822210000544D902100003C2D9221B4
:1013C00000002D3EB02100000300BB2100000400FE
:1013D0003C2200007E00482200007E3D602200008A
:1013E000213D612200003D00642200003C3D652259
:1013F00000003E3DF12300000700A03000003D004A
:1014000021F301000200C2F401000500A200000067
:10141000EC00B0000000DF00E4000000E100F60096
:101420000000EF00F7000000FD00FC000000F500E8
:10143000E3020000EB0087030000A5008F0300001B
:10144000F40098030000F2009E030000E300A303F1
:101450000000F600A9030000F400AC030000E00067
:10146000AD030000E300B1030000E000B2030000A0
:10147000E200B5030000E300B8030000F200BC0383
:101480000000E400BE030000E300C0030000F7001A
:10149000C1030000E600C3030000E5009021000046
:1014A0007F00922100007E001A220000E8001E2228
:1014B0000000F30088250000FF0002300000A100BA
:1014C0000C300000A2000D300000A3009B30000093
:1014D000DE009C300000DF00A03000003D00A130A5
:1014E0000000A700A2300000B100A3300000A80057
:1014F000A4300000B200A5300000A900A630000012
:10150000B300A7300000AA00A8300000B400A93042
:101510000000AB00AA300000B500AB300000B60000
:10152000AC300000B6DEAD300000B700AE300000D9
:10153000B7DEAF300000B800B0300000B8DEB13028
:101540000000B900B2300000B9DEB3300000BA00CC
:10155000B4300000BADEB5300000BB00B630000089
:10156000BBDEB7300000BC00B8300000BCDEB930D4
:101570000000BD00BA300000BDDEBB300000BE0080
:10158000BC300000BEDEBD300000BF00BE30000039
:10159000BFDEBF300000C000C0300000C0DEC13080
:1015A0000000C100C2300000C1DEC3300000AF0047
:1015B000C4300000C200C5300000C2DEC6300000EA
:1015C000C300C7300000C3DEC8300000C400C9300B
:1015D0000000C4DECA300000C500CB300000C600E9
:1015E000CC300000C700CD300000C800CE30000075
:1015F000C900CF300000CA00D0300000CADED130B0
:101600000000CADFD2300000CB00D3300000CBDEB8
:10161000D4300000CBDFD5300000CC00D630000045
:10162000CCDED7300000CCDFD8300000CD00D93080
:101630000000CDDEDA300000CDDFDB300000CE0070
:10164000DC300000CEDEDD300000CEDFDE3000001A
:10165000CF00DF300000D000E0300000D100E130EA
:101660000000D200E2300000D300E3300000AC0004
:10167000E4300000D400E5300000AD00E6300000AA
:10168000D500E7300000AE00E8300000D600E930B9
:101690000000D700EA300000D800EB300000D9008D
:1016A000EC300000DA00ED300000DB00EF3000002D
:1016B000DC00F2300000A600F3300000DD00F43062
:1016C0000000B3DEF7300000DCDEFA300000A6DEFA
:1016D000FB300000A500FC300000B000FD30000031
:1016E000A400074E0000FB0086510000FC0043539D
:1016F0000000FA0064FF0000A40065FF0000A500E0
:1017000066FF0000A60067FF0000A70068FF00005A
:10171000A80069FF0000A9006AFF0000AA006BFF93
:101720000000AB006CFF0000AC006DFF0000AD00DE
:101730006EFF0000AE006FFF0000AF0070FF000002
:10174000B00071FF0000B10072FF0000B20073FF33
:101750000000B30074FF0000B40075FF0000B50086
:1017600076FF0000B60077FF0000B70078FF0000AA
:10177000B80079FF0000B9007AFF0000BA007BFFD3
:101780000000BB007CFF0000BC007DFF0000BD002E
:101790007EFF0000BE007FFF0000BF0080FF000052
:1017A000C00081FF0000C10082FF0000C20083FF73
:1017B0000000C30084FF0000C40085FF0000C500D6
:1017C00086FF0000C60087FF0000C70088FF0000FA
:1017D000C80089FF0000C9008AFF0000CA008BFF13
:1017E0000000CB008CFF0000CC008DFF0000CD007E
:1017F0008EFF0000CE008FFF0000CF0090FF0000A2
:10180000D00091FF0000D10092FF0000D20093FFB2
:101810000000D30094FF0000D40095FF0000D50025
:1018200096FF0000D60097FF0000D70098FF000049
:10183000D80099FF0000D9009AFF0000DA009BFF52
:101840000000DB009CFF0000DC009DFF0000DD00CD
:101850009EFF0000DE009FFF0000DF00E5FF0000AC
:101860005C0000000000010204040000001C1C0CCD
:10187000040404020100000000000408100000003D
:101880000000001C1F11111F00000006191803138F
:101890000C00040E1F041C000000000E1315110E96
:1018A00000001C10181705060500040A0A0A0A1190
:1018B000110E0C12120C00000000001F1511151F54
:1018C00000004F6666004F6E00416476616E63658E
:1018D000642053657474696E677300436F6E666944
:1018E0006775726174696F6E0054656D70657261C1
:1018F000747572650043616E63656C004D38340029
:1019000041425300504C4100416476616E63652052
:101910004B003F00496E697469616C697A652045C6
:101920004550524F4D002052004C6576656C696EF3
:101930006720446F6E6521004E65787420506F6992
:101940006E74002569202F202575004732392053F9
:101950003100436C69636B20746F20426567696E68
:1019600000486F6D696E672058595A0053746F7242
:10197000652053657474696E6773004C6F616420F1
:1019800053657474696E677300426564205A00463B
:101990006164652048656967687400426564204C2D
:1019A0006576656C696E67004C6576656C2042658E
:1019B00064004D6F74696F6E004E6F7A7A6C6500CB
:1019C00046616E20537065656400526573746F7272
:1019D000652044656661756C747300507265686556
:1019E0006174202420436F6E66004D61696E004271
:1019F00061636B0053746F70004368616E676520AC
:101A00004D65646961004D323100526573756D65D5
:101A1000205072696E74004E6F204D6564696100DC
:101A200054756E650053746F70205072696E740047
:101A30005061757365205072696E7400496E666FEF
:101A40002053637265656E00537461727420507226
:101A5000696E740043616E6E6F7420656E7465729A
:101A6000207375626469723A2000052E2E00486F5B
:101A700074656E6420746F6F20636F6C64005072C5
:101A80006F636565640044697361626C65205374BB
:101A900065707065727300486F6D65205A0047323B
:101AA000385A00486F6D6520590047323859004850
:101AB0006F6D6520580047323858004175746F20AB
:101AC000486F6D650047323800436F6F6C646F7705
:101AD0006E0050726568656174202400426162790D
:101AE00073746570205A00466C6F77002568753AEC
:101AF00025303268750025303268753A25303268F5
:101B000075005344002020202020202000507269BE
:101B10006E742041626F72746564004D32350050FE
:101B2000617573696E672E2E2E00454550524F4DDC
:101B30002056657273696F6E204572726F72004530
:101B40004550524F4D20496E646578204572726F42
:101B50007200454550524F4D20435243204572720A
:101B60006F720049676E6F7265006F70656E00542A
:101B70005249474745524544007A5F6D6178007A83
:101B80005F6D696E00795F6D617800795F6D696E78
:101B900000785F6D617800785F6D696E00526570E6
:101BA0006F7274696E6720656E6473746F702073F2
:101BB00074617475730A00486F6D696E67204661C1
:101BC000696C6564005761726E696E673A20486F90
:101BD0006D696E672042756D702044697669736F18
:101BE00072203C20310A0053657474696E6773205B
:101BF00053746F726564002062797465733B20636F
:101C00007263200053657474696E67732053746F38
:101C1000726564202800454550524F4D2064617420
:101C20006173697A65206572726F722E0A00207383
:101C3000746F7265642073657474696E6773207263
:101C40006574726965766564202800202863616C7C
:101C500063756C6174656429210A0020213D2000B0
:101C6000454550524F4D20435243206D69736D617D
:101C7000746368202D202873746F726564292000B6
:101C8000496E6465783A200044494749504F54539F
:101C9000204C6F616465640A0044494749504F54C1
:101CA00053204C6F6164696E670A00204D61726C4D
:101CB000696E3D563832290A00454550524F4D2035
:101CC00076657273696F6E206D69736D6174636898
:101CD0002028454550524F4D3D0048617264636F66
:101CE0006465642044656661756C74205365747422
:101CF000696E6773204C6F616465640A003B200065
:101D000020204D393030204B004C696E65617220C7
:101D1000416476616E63653A0020440020204D33B3
:101D200030312050005049442073657474696E67E7
:101D3000733A0020460020480020204D31343520E1
:101D400053004D6174657269616C206865617475DA
:101D50007020706172616D65746572733A00202045
:101D6000473239205334205A00204A00202047327D
:101D70003920533320490020204D34323020530085
:101D80004D65736820426564204C6576656C696EAC
:101D9000673A0020204D323036205800486F6D657C
:101DA000206F66667365743A0020204D323035200E
:101DB0004200416476616E6365643A20423C6D691D
:101DC0006E5F7365676D656E745F74696D655F7571
:101DD000733E20533C6D696E5F6665656472617425
:101DE000653E20543C6D696E5F74726176656C5F10
:101DF00066656564726174653E204A3C6A756E630F
:101E00005F6465763E0020540020204D323034203F
:101E10005000416363656C65726174696F6E202860
:101E2000756E6974732F7332293A20503C70726951
:101E30006E745F616363656C3E20523C72657472C0
:101E40006163745F616363656C3E20543C747261CE
:101E500076656C5F616363656C3E0020204D3230B7
:101E6000312058004D6178696D756D20416363655F
:101E70006C65726174696F6E2028756E6974732F5A
:101E80007332293A0020204D3230332058004D6102
:101E900078696D756D20666565647261746573201F
:101EA00028756E6974732F73293A005374657073C3
:101EB0002070657220756E69743A0020204D3230B2
:101EC000302053002044697361626C65640A0046E7
:101ED000696C616D656E742073657474696E677387
:101EE0003A0020204D3134392043203B20556E6983
:101EF000747320696E2043656C736975730A0020E2
:101F0000286D6D29002020473231202020203B20E1
:101F1000556E69747320696E206D6D0020436F7576
:101F20006E7420583A00544845524D414C20525549
:101F30004E4157415900546865726D616C2052756D
:101F40006E617761790048656174696E67204661EA
:101F5000696C65640048656174696E6720666169D3
:101F60006C6564004572723A204D415854454D509D
:101F7000004D415854454D50207472696767657231
:101F80006564004572723A204D494E54454D5000EB
:101F90004D494E54454D50207472696767657265AE
:101FA0006400202F0020403A007C3C3E5E2B3D3FE9
:101FB0002F5B5D3B2C2A225C0004190019000000F5
:101FC000000000000000000000000048420000483F
:101FD00042000080400202040000A0400000A04037
:101FE00000000040FFFFFF000000010000000100B2
:101FF000008000555555000000400033333300AADF
:10200000AA2A004992240000002000C7711C0099F0
:10201000991900D1451700555515003BB1130024FF
:1020200049120011111100000010000F0F0F00E302
:10203000380E0043790D00CCCC0C00C3300C00E806
:10204000A20B0064210B00AAAA0A00703D0A009DA1
:10205000D80900427B090092240900DCD3080088DB
:102060008808001042080000000800F0C10700873F
:1020700087070075500700711C07003EEB0600A1A2
:10208000BC06006990060066660600703E060061A8
:1020900018060017F4050074D105005BB00500B206
:1020A000900500627205005555050078390500B8A5
:1020B0001E0500050505004EEC040087D40400A1B0
:1020C000BD040090A7040049920400C17D0400EE05
:1020D000690400C7560400444404005C320400084C
:1020E00021040041100400000004003FF00300F848
:1020F000E0030026D20300C3C30300CCB503003ABB
:10210000A803000A9B0300388E0300C08103009FD0
:10211000750300D0690300505E03001D53030034B3
:10212000480300913D0300333303001629030038B0
:102130001F030097150300300C0300030303000B7B
:10214000FA020049F10200BAE802005CE002002D48
:10215000D802002DD0020059C80200B0C0020031E0
:10216000B90200DAB10200AAAA0200A0A30200BCD0
:102170009C0200FA9502005C8F0200DF8802008258
:10218000820200457C02002776020027700200438D
:102190006A02007C640200D05E02003F590200C85F
:1021A000530200FFFDFCFAF8F6F4F2F0EEECEAE977
:1021B000E7E5E3E1E0DEDCDAD9D7D5D4D2D0CFCD84
:1021C000CBCAC8C7C5C3C2C0BFBDBCBAB9B7B6B415
:1021D000B3B2B0AFADACAAA9A8A6A5A4A2A1A09E77
:1021E0009D9C9A99989795949392908F8E8D8B8AB7
:1021F0008988878684838281807F7E7D7B7A7978D7
:1022000077767574737271706F6E6D6C6B6A6968D6
:1022100067666564636261605F5E5D5C5B5A5958C6
:10222000585756555453525150504F4E4D4C4B4A9F
:102230004A4948474646454443424241403F3E3E64
:102240003D3C3B3B3A39383837363535343332321A
:102250003130302F2E2E2D2C2B2B2A2929282727C1
:1022600026252524232322212120201F1E1E1D1C5C
:102270001C1B1B1A191918181716161515141313E9
:1022800012121111100F0F0E0E0D0D0C0C0B0A0A6D
:1022900009090808070706060505040403030202E6
:1022A00001000000004D4300004D43000048430082
:1022B000009643000096430000A0400000C841FB88
:1022C0007A9D42FB7A9D4255550544CC2A5B44B821
:1022D0000B0000B80B000064000000102700002471
:1022E000F4D43050C38E20C2A24017828B701112DA
:1022F0007A910D816CD90AA861E108C75866076117
:102300005143061E4B5D05C145A7041A411104093E
:102310003D9803713931034036DB0265339102D4B5
:10232000305402802E1D02632CEE01752AC501B0C7
:1023300028A001102781018F2564012B244B01E087
:10234000223401AC211F018D200D01801FFC00846F
:102350001EED00971DDF00B81CD200E61BC6002052
:102360001BBC00641AB200B219A8000A19A0006AC6
:10237000189900D117910040178B00B516840031D1
:10238000167E00B31579003A157300C7146F005814
:10239000146A00EE1366008813630025135E00C7FD
:1023A000125B006C12570015125400C111510070DD
:1023B000114F0021114B00D61049008D10470046E7
:1023C00010440002104200C00F4000800F3E004247
:1023D0000F3C00060F3B00CB0E3800930E37005C1D
:1023E0000E3500270E3400F30D3200C10D31009080
:1023F0000D3000600D2E00320D2D00050D2C00D982
:102400000C2B00AE0C2900850C29005C0C27003534
:102410000C27000E0C2600E80B2400C40B2400A09F
:102420000B23007D0B23005A0B2100390B210018D0
:102430000B2000F80A1F00D90A1E00BB0A1E009DCF
:102440000A1D00800A1D00630A1C00470A1B002C9D
:102450000A1B00110A1A00F7091A00DD091900C445
:10246000091900AB091900920917007B09180063CC
:102470000917004C09160036091600200916000A33
:10248000091500F5081500E0081400CC081400B880
:10249000081400A4081400900813007D0812006BB3
:1024A00008130058081200460812003408110023CF
:1024B0000811001208110001081100F0071000E0D7
:1024C000071000D0071000C0071000B0070F00A1D0
:1024D00007100091070E0083070F0074070F0065B7
:1024E000070E0057070E0049070E003B070D002E90
:1024F000070E0020070D0013070D0006070D00F959
:10250000060C00ED060D00E0060C00D4060C00C819
:10251000060C00BC060C00B0060C00A4060B0099CB
:10252000060C008D060B0082060B0077060B006C74
:10253000060B0061060A0057060B004C060A004213
:10254000060A0038060A002E060A0024060A001AA7
:10255000060A001006090007060A00FD050900F436
:10256000050900EB050900E2050900D9050900D0BD
:10257000050900C7050900BE050900B5050800AD3D
:10258000050800A50509009C050800940508008CB5
:10259000050800840508007C050800740508006C27
:1025A000050700650508005D050700560508004E93
:1025B00005070047050700400508003805070031FA
:1025C0000507002A050700230507001C050600165D
:1025D0000507000F0507000805060002050700FBB8
:1025E000040600F5040700EE040600E8040600E215
:1025F000040700DB040600D5040600CF040600C96A
:10260000040600C3040600BD040600B7040600B1BA
:10261000040500AC040600A6040600A00405009B07
:1026200004060095040500900406008A0405008550
:10263000040500800406007A040500750405007096
:102640000405006B04050066040500610405005CD8
:1026500004050057040500520405004D0405004818
:10266000040500430405003E0404003A0405003557
:10267000040500300404002C040500270404002392
:102680000405001E0404001A0404001604050011C9
:102690000404000D040400090405000404040000FF
:1026A000040400FC030400F8030400F4030400F035
:1026B000030400EC030400E8030400E4030400E066
:1026C000030400DC030400D8030400D4030400D096
:1026D000030400CC030400C8030300C50303002463
:1026E000F404D9201BC40C5C0E9804C4095F026575
:1026F000077101F405F900FB04B30048048700C129
:102700000369005803550003034500BE023A0084E4
:1027100002310053022A002902250004022000E4AD
:10272000011C00C8011900AF0117009801140084B2
:10273000011300710110006101100051010E0043EE
:10274000010D0036010B002B010B0020010B0015C1
:102750000109000C01090003010800FB000800F357
:10276000000800EB000700E4000600DE000600D8C9
:10277000000600D2000600CC000500C7000500C21C
:10278000000500BD000400B9000400B5000400B15C
:10279000000400AD000400A9000400A5000300A28D
:1027A0000003009F0004009B0003009800030095B5
:1027B00000020093000300900003008D0002008BD4
:1027C00000030088000200860002008400030081EC
:1027D0000002007F0002007D0002007B0002007901
:1027E000000200770001007600020074000200720F
:1027F000000100710002006F0002006D0001006C1A
:102800000002006A00010069000200670001006622
:102810000001006500010064000200620001006127
:10282000000100600001005F0002005D0001005C2B
:102830000001005B0001005A00010059000100582E
:10284000000100570001005600010055000100542E
:10285000000100530000005300010052000100512C
:10286000000100500001004F0001004E0000004E2A
:102870000001004D0001004C0001004B0000004B26
:102880000001004A00010049000100480000004822
:10289000000100470001004600000046000100451D
:1028A0000000004500010044000100430000004317
:1028B0000001004200000042000100410000004110
:1028C000000100400001003F0000003F0001003E09
:1028D0000000003E0001003D0000003D0001003C02
:1028E0000000003C0000003C0001003B0000003BF9
:1028F0000001003A0000003A0001003900000039F0
:1029000000010038000000380000003800010037E6
:1029100000000037000100360000003600000036DD
:1029200000010035000000350000003500010034D2
:1029300000000034000000340001003300000033C8
:1029400000000033000100320000003200000032BD
:1029500000010031000000310000003100010030B2
:1029600000000030000000300001002F0000002FA8
:102970000000002F0000002F0001002E0000002E9C
:102980000000002E0001002D0000002D0000002D91
:102990000000002D0001002C0000002C0000002C85
:1029A0000000002C0001002B0000002B0000002B79
:1029B0000000002B0001002A0000002A0000002A6D
:1029C0000000002A00010029000000290000002961
:1029D0000000002900000029000100280000002854
:1029E0000000002800000028000000280001002747
:1029F000000000270000002700000027000000273B
:102A0000000100260000002600000026000000262D
:102A10000000002600010025000000250000002520
:102A20000000002500000025000000250001002412
:102A30000000002400000024000000240000002406
:102A400000010023000000230000002300000023F9
:102A500000000023000000230000002300010022EA
:102A600000000022000000220000002200000022DE
:102A700000000022000100210000002100000021D0
:102A800000000021000000210000002100000021C2
:102A900000010020000000200000002000000020B5
:102AA00000000020000000200000002000000020A6
:102AB0000001001F0000001F0000001F0000001F99
:102AC0000000001F0000001F0000001F0001001E8A
:102AD0000000001E0000001E0000001E0000002379
:102AE0002C0000B8220000561800003A0F0000B871
:102AF000080000B1040000710200003E0100002047
:102B000053697A653A20004D6F7665205A005072FD
:102B1000696E742066726F6D204D65646961005046
:102B200072696E74205061757365640020746F6FF4
:102B3000206C6F6E6720657874727573696F6E2094
:102B400070726576656E7465640A0020636F6C64EC
:102B500020657874727573696F6E20707265766522
:102B60006E7465640A0043616E6E6F74206F7065E9
:102B70006E207375626469722000534420496E6947
:102B800074204661696C0053442063617264206F55
:102B90006B0A006F70656E526F6F74206661696CAE
:102BA00065640A00766F6C756D652E696E697420B8
:102BB0006661696C65640A004E6F2053442063614E
:102BC00072640A004D3234004D3233202573006F99
:102BD00070656E206661696C65642C2046696C6561
:102BE0003A200046696C652073656C6563746564A2
:102BF0000A0046696C65206F70656E65643A200056
:102C0000454E4420535542524F5554494E450A00B3
:102C10002220706F73002220706172656E743A22F8
:102C200000535542524F5554494E452043414C4C58
:102C3000207461726765743A220053756263616C37
:102C40006C204F766572666C6F77004578636565BA
:102C5000646564206D617820535542524F55544944
:102C60004E452064657074683A310A005772697481
:102C7000696E6720746F2066696C653A2000446550
:102C80006C6574696F6E206661696C65642C2046A2
:102C9000696C653A200046696C652064656C6574F2
:102CA00065643A00667265736800646F696E6700F8
:102CB0004E6F77200068747470733A2F2F6D6172B5
:102CC0006C696E66772E6F72670020322E302E3759
:102CD0002E32002020506C616E6E65724275666601
:102CE000657242797465733A2000204672656520EA
:102CF0004D656D6F72793A2000436F6D70696C6538
:102D0000643A2041707220313220323032310A0070
:102D1000204C61737420557064617465643A20328C
:102D20003032302D31302D3135207C2041757468A2
:102D30006F723A20284B726973204D2C20554D4FED
:102D4000290A00322E302E372E320A004D61726C65
:102D5000696E0020536F66747761726520526573E7
:102D600065740A00205761746368646F6720526558
:102D70007365740A002042726F776E206F7574203D
:102D800052657365740A002045787465726E616CD3
:102D90002052657365740A00506F77657255700A2A
:102DA000006175746F25632E6700473238585900EB
:102DB0004D31303031006572726F722077726974F4
:102DC000696E6720746F2066696C650A00446F6ED7
:102DD0006520736176696E672066696C652E0A00EE
:102DE0004D323900456E6473746F70730025532043
:102DF000256320256320256320256300656E6473A9
:102E0000746F7073206869743A20004D6F76652086
:102E100025736D6D004D6F766520302E316D6D0020
:102E20004D6F766520316D6D004D6F7665203130C8
:102E30006D6D004D6F76652041786973004578743B
:102E40007275646572004D6F76652059004D6F761E
:102E500065205800220A00556E6B6E6F776E2063F6
:102E60006F6D6D616E643A202200556C74696D61FE
:102E70006B65722052656164792E005072696E74C0
:102E8000696E672E2E2E00204D39322058002045C5
:102E90003A00205A3A0020593A004531002C20735C
:102EA000797374656D2073746F7070656421204848
:102EB00065617465725F49443A2000DB0FC93F4584
:102EC000BCDA3F8FB30240FCF0274056946140FECD
:102ED0004B9B4084A5D840E0231841346A5641E812
:102EE00059974164DBD5416E271742B4B75542CE9E
:102EF0001A9742C8AED542B5885A43D40684BFA6B5
:102F00005FA7BF7443E0BF10B11AC01C2C58C0E8C3
:102F1000F697C0B849D6C04E4E17C124D355C180CC
:102F20002497C1A0B5D5C1121A17C244AE55C278B4
:102F30001797C26CACD5C267885AC300002200251F
:102F40000028002B002E0031003400020100000593
:102F50000108010B0100002100240027002A002D98
:102F6000003000330001010000040107010A0105DF
:102F7000050505070508080808020202020A0A08F2
:102F80000804040404010101010101010103030318
:102F90000303030303040707070C0C0C0C0C0C0CB5
:102FA0000C0202020206060606060606060B0B0BBC
:102FB0000B0B0B0B0B0102102020080810204010F7
:102FC00020408002010201080402010102040810ED
:102FD000204080804020100804020180040201800B
:102FE0004020100804020108040201010204081034
:102FF000204080010204081020408000000A0B02DB
:10300000090C0D0E08070304010000000000000079
:1030100000000000000000000000000000000000B0
:10302000000000000000001211100000000000006D
:103030000000000000000000000000000000000090
:10304000000066FC880111241FBECFEFD1E2DEBF75
:10305000CDBF00E00CBF13E0A0E0B2E0EEE8F6E286
:1030600002E00BBF02C007900D92A631B107D9F75D
:1030700028E1A6E1B3E001C01D92A93DB207E1F746
:1030800018E1C2E2D8E100E006C021970109802FD3
:10309000FE010F94850FC132D10780E00807A9F720
:1030A0000E94D1FD0D9435130C940000CF93DF9353
:1030B000EC01CB01BA010F94AB0820E030E0A9018C
:1030C0000F94A80F688379838A839B83DF91CF91C4
:1030D0000895CF93DF93EC01CB01BA010F94AB08B5
:1030E00020E030E04AE754E40F94A21020E030E002
:1030F000A9010F94A80F688379838A839B83DF914A
:10310000CF910895CF93DF93EC01CB01BA010F94D7
:10311000AB0820E030E048EC52E40F94A21020E02D
:1031200030E0A9010F94A80F688379838A839B8379
:10313000DF91CF910895CF92DF92EF92FF9223EF2C
:1031400034E045E35FE36091710B7091720B809105
:10315000730B9091740B0F940A092AE136EF45E93D
:103160005EE30F94A2106B017C0160910A127091D2
:103170000B1280910C1290910D120F94A9089B01D3
:10318000AC01C701B6010F940A090F94561260935F
:10319000890B70938A0B80938B0B90938C0BFF9011
:1031A000EF90DF90CF900895FC0184910895FC0189
:1031B00080810895CF93DF93DB01F9019C919130D9
:1031C000C1F0943080F094509C938830D1F4808189
:1031D0009181009771F0019791838083480F591F67
:1031E000EA01188206C08C3539F49C5F9C939430B8
:1031F00041F4DF91CF9108958B3339F781E08C93BF
:10320000F8CF20813181B9016F5F7F4F7183608377
:10321000420F531FEA018883808191818F35910588
:103220006CF7E7CF882329F08130A1F08FEF9FEF73
:10323000089580914B0620914C068217B9F3E22F36
:10324000F0E0E55BF94F828190E02F5F2F772093CC
:103250004C0608958091CD062091CE06821731F359
:10326000E22FF0E0E353F94F828190E02F5F2F7758
:103270002093CE06089590916009292F30E0F9013E
:10328000E557F94E8083220F331FF901ED5BF94FAB
:10329000718360839F5F943040F4909360098091C4
:1032A000E40A8F5F8093E40A089510926009F7CFD3
:1032B000282F90911D06833021F495FD0FC094FDB9
:1032C0000FC0892F90E0B0E0A0E004C0B695A795AC
:1032D000979587952A95D2F78170089581E0089592
:1032E00080E00895A09A0895809A889808950C9493
:1032F00065820C9465820C9465820C9465820C94B2
:10330000EE810C94EE810C94EE810C94EE81809110
:103310004F02882341F060919B0770919C0741E028
:1033200081E00C942AE50895CF92DF92EF92FF920C
:103330000F931F93CF93DF9300D000D01F921F9263
:10334000CDB7DEB78E010F5F1F4FD80130E020E010
:10335000FB01E20FF31FE491ED932F5F3F4F283005
:103360003105B1F7877098E0899FB001112460643E
:1033700084E796E10E9446EB83E790E00197F1F73E
:103380007801E8E0EE0EF11C8BE9C82ED12CF80193
:1033900061918F0184E796E10E9415C7C6010197EC
:1033A000F1F7E016F10699F728960FB6F894DEBF0C
:1033B0000FBECDBFDF91CF911F910F91FF90EF9086
:1033C000DF90CF900895CF92DF92EF92FF920F930C
:1033D0001F93CF93DF9300D000D0CDB7DEB78A0123
:1033E00046E0469F9001479F300D1124BC01620FBB
:1033F000731F46E050E0CE0101960F94CD07C980BF
:10340000DA80EB80FC80F801408151816281738118
:103410008FEF9FEFC416D506E606F70640F081E071
:1034200090E04C155D056E057F0508F080E026965E
:103430000FB6F894DEBF0FBECDBFDF91CF911F91C5
:103440000F91FF90EF90DF90CF9008950F931F930F
:10345000CF93DF93CDB7DEB72E970FB6F894DEBFCC
:103460000FBECDBF8A011E861D866F837887898730
:103470009A872FEF2B87603871058105910538F405
:1034800084E796E10E9415C781E090E02FC09E017D
:10349000235F3F4FAE01495F5F4F69EB70E08CE007
:1034A00094E10E940BCA97FD2CC08D859E8526E075
:1034B000289FB001299F700D1124645F7B4E46E068
:1034C00050E0CE0101960F94CD076D8184E796E11F
:1034D0000E9415C701301105B9F26E816623A1F271
:1034E00084E796E10E9415C782E090E02E960FB621
:1034F000F894DEBF0FBECDBFDF91CF911F910F912A
:1035000008959E01235F3F4FAE01495F5F4F63E621
:1035100070E08AEB91E10E940BCA97FD0BC08D858C
:103520009E8526E0289FB001299F700D11246654C6
:103530007E4EC5CF6FE3A4CF8F929F92AF92BF9282
:10354000EF92FF920F931F93CF938C017B01FC01AD
:1035500080A1813089F00E9498EAF80182889388DE
:10356000A488B588681979098A099B0997FD04C060
:1035700087E080A3C0E022C080914206882339F012
:103580008130C1F79091CD062091CE0604C0909174
:103590004B0620914C06921B9F77C1E059F30E9485
:1035A0001219F70180830E9498EA6C507E4F8F4F6A
:1035B0009F4FF801628B738B848B958B8C2FCF91EF
:1035C0001F910F91FF90EF90BF90AF909F908F90C1
:1035D000089580914106811108C00E947FF085E125
:1035E0009BE00E949CF60E94ADEC1092400608956C
:1035F0002091E21521110C94BEF18FEF9FEF0895F9
:1036000080910C0690910D06009731F04AE050E051
:1036100070E060E00D94C10660E070E0CB010895B9
:1036200080910C0690910D06009731F04AE050E031
:1036300070E060E00D94930560E070E0CB010895C8
:103640000E94101BCB010895CF93DF9300D01F92EF
:10365000CDB7DEB70F941B110F94A90869837A8345
:103660008B839C83CE0101960E94119F0F900F9037
:103670000F900F90DF91CF9108958F929F92AF920C
:10368000BF92CF92DF92EF92FF92CF936B017C01BA
:1036900020E030E0A9010F94A40887FDAAC06DEBDB
:1036A00077E386E095E3A70196010F94A80F6B01DD
:1036B0007C0120E030E0A9010F94A40887FF9EC0A0
:1036C000C701B601905820E030E040E251E40F9489
:1036D0000A0920E030E040E251E40F940A0920E0BA
:1036E00030E040EA50E40F94A80F20E030E040E2E0
:1036F00051E40F94A2100F9414116B017C0180E22D
:1037000080939E0760E280E1C81687E2D806E10454
:10371000F1048CF0C701B60120E137E240E050E04F
:103720000F94660FCA01B9012AE030E040E050E092
:103730000F94660F605D60939F0760E288EEC81685
:1037400083E0D806E104F1048CF0C701B60128EE4D
:1037500033E040E050E00F94660FCA01B9012AE05F
:1037600030E040E050E00F94660F605D6093A0078A
:1037700060E284E6C816D104E104F1048CF0C701CC
:10378000B60124E630E040E050E00F94660FCA0135
:10379000B9012AE030E040E050E00F94660F605D30
:1037A0006093A1078AE0882E912CA12CB12CC7012F
:1037B000B601A50194010F94660FC62FCA01B90185
:1037C000A50194010F94660F605D6093A2078EE2DD
:1037D0008093A307C05DC093A4078EE997E0CF91C3
:1037E000FF90EF90DF90CF90BF90AF909F908F9021
:1037F00008956DEB77E386E095EB55CF20E030E060
:1038000040E251E4C701B60162CFCF92DF92EF925E
:10381000FF92CF93DF9300D01F92CDB7DEB76B013D
:103820007C0120E030E0A9010F94A40887FD1BC0B3
:103830006DEB77E386E095E3A70196010F94A80F5F
:1038400069837A838B839C83CE0101960E94119FAA
:103850000F900F900F900F90DF91CF91FF90EF900E
:10386000DF90CF9008956DEB77E386E095EBE4CFA2
:103870000F94AB082AE037ED43E25DE30F94A2100A
:1038800020E030E0A9010F94A80F0C94051CCF9202
:10389000DF92EF92FF92CF93DF9300D01F92CDB7CC
:1038A000DEB76B017C0120E030E0A9010F94A40891
:1038B00087FD1CC06DEB77E386E095E3A7019601D9
:1038C0000F94A80F69837A838B839C8360E2CE0177
:1038D00001960E94949F0F900F900F900F90DF9190
:1038E000CF91FF90EF90DF90CF9008956DEB77E34D
:1038F00086E095EBE3CF0F94AB0820E030E04AE799
:1039000054E40F94A21020E030E0A9010F94A80F16
:103910000C94471C8F929F92AF92BF92CF92DF92EE
:10392000EF92FF92CF936B017C0120E030E0A90180
:103930000F94A40887FFA3C06DEB77E386E095EBB7
:10394000A70196010F94A80F6B017C0120E030E0E5
:1039500040E251E40F940A0920E030E048EC52E4E0
:103960000F940A094B015C0120E030E040E251EC89
:10397000C701B6010F94A408181654F420E030E0F3
:1039800048EC52E4C701B6010F94081287FD8BC0C2
:1039900020E030E0A901C701B6010F94A40887FF19
:1039A00073C060E070E080EA90ECA50194010F9490
:1039B000A80F20E030E040E251E40F94A2100F94F1
:1039C00014116B017C01F7FC64C020E137E240E098
:1039D00050E00F94660FCA01B9012AE030E040E0E0
:1039E00050E00F94660F605D60939F07C701B601BA
:1039F00028EE33E040E050E00F94660F9AE0892E05
:103A0000912CA12CB12CCA01B901A50194010F94EC
:103A1000660F605D6093A007C701B60124E630E041
:103A200040E050E00F94660FCA01B901A50194016E
:103A30000F94660F605D6093A1078EE28093A207EA
:103A4000C701B601A50194010F94660FC62FCA01E4
:103A5000B901A50194010F94660F605D6093A307FF
:103A6000C05DC093A4078FE997E0CF91FF90EF90DE
:103A7000DF90CF90BF90AF909F908F9008956DEBA7
:103A800077E386E095E35CCF60E070E080EA90E465
:103A90008CCFF094E094D094C094C11CD11CE11C54
:103AA000F11C6DE2A1CF20E030E0A901C701B60111
:103AB0000F94A40887FF6AC060E070E080EA90EC91
:103AC000A50194010F94A80F20E030E040E251E4FA
:103AD0000F94A2100F9414114B015C0120E030E010
:103AE000A901C701B6010F94081287FD0BC020E0A1
:103AF00030E040E251E4C701B6010F94A40860E24F
:103B000087FD13C0B7FC47C0C501B40128EE33E000
:103B100040E050E00F94660FCA01B9012AE030E09E
:103B200040E050E00F94660F605D6093A007C50110
:103B3000B40124E630E040E050E00F94660F8AE0E4
:103B4000C82ED12CE12CF12CCA01B901A701960194
:103B50000F94660F605D6093A1078EE28093A207C9
:103B6000C501B401A70196010F94660FC62FCA01C3
:103B7000B901A70196010F94660F605D6093A307DA
:103B8000C05DC093A40780EA97E06FCF60E070E06B
:103B900080EA90E495CFB094A09490948094811C96
:103BA000911CA11CB11C6DE2C0CF0F94AB0820E0AA
:103BB00030E048EC52E40F94A21020E030E0A9017C
:103BC0000F94A80F0C948A1CCF92DF92EF92FF9271
:103BD0006B017C0120E030E0A9010F94A40887FD6F
:103BE00026C06DEB77E386E095E3A70196010F947D
:103BF000A80F6B017C0120E030E0A9010F94A4081C
:103C000020E030E040E05FE387FF04C020E030E0E8
:103C100040E05FEBC701B6010F94A80F0F94141199
:103C2000CB01FF90EF90DF90CF900C94EFA06DEB65
:103C300077E386E095EBD9CF0F94AB0820E030E036
:103C4000A9010F94A80F0C94E41D63E972E084E6C7
:103C500090E00E94C7A66AEB72E084E690E00C94C4
:103C6000C7A681110C94251E68EB71E084E190E0F9
:103C70000C94C7A680913C1690913D16891B8F70BD
:103C800051F48091640B813031F08091021882FBF5
:103C9000882780F9089581E00895E0919107E63042
:103CA00010F581E08E0F809391074091FC0A5091AE
:103CB000FD0A6091FE0A7091FF0A9091F50A8091C9
:103CC000F60A28E0E29FF0011124EF59F84F209105
:103CD0007216309173163183208342835383648339
:103CE0007583968387830895AF92BF92CF92DF92B8
:103CF000EF92FF920F931F93CF93DF93EC015B0141
:103D00008A01FB01199587FD16C0C82ED12CF12C14
:103D1000E12C2196F801C082D182E282F382CE01A9
:103D2000DF91CF911F910F91FF90EF90DF90CF9097
:103D3000BF90AF900895982F907E903CA9F48F711A
:103D400090E0B0E0A0E06C017D0126E0CC0CDD1C31
:103D5000EE1CFF1C2A95D1F7CE010196F5011995AD
:103D60008F73C82A2296D6CF982F907F903E11F558
:103D70008F7090E0B0E0A0E06C017D0186E0CC0C9B
:103D8000DD1CEE1CFF1C8A95D1F7CE010196F501D2
:103D900019958F73C82A96E0CC0CDD1CEE1CFF1C15
:103DA0009A95D1F7CE010296F50119958F73C82A1D
:103DB0002396B0CF982F987F903F79F5877090E049
:103DC000B0E0A0E06C017D01F6E0CC0CDD1CEE1C47
:103DD000FF1CFA95D1F7CE010196F50119958F7365
:103DE000C82AA6E0CC0CDD1CEE1CFF1CAA95D1F75E
:103DF000CE010296F50119958F73C82AB6E0CC0C56
:103E0000DD1CEE1CFF1CBA95D1F7CE010396F5011F
:103E100019958F73C82A24967DCF982F9C7F983F41
:103E2000E1F5837090E0B0E0A0E06C017D0156E028
:103E3000CC0CDD1CEE1CFF1C5A95D1F7CE0101966F
:103E4000F50119958F73C82A66E0CC0CDD1CEE1CB9
:103E5000FF1C6A95D1F7CE010296F50119958F7373
:103E6000C82A76E0CC0CDD1CEE1CFF1C7A95D1F73D
:103E7000CE010396F50119958F73C82AE6E0CC0CA4
:103E8000DD1CEE1CFF1CEA95D1F7CE010496F5016E
:103E900019958F73C82A25963DCF982F9E7F9C3FFA
:103EA00009F049C0817090E0B0E0A0E06C017D01B4
:103EB00086E0CC0CDD1CEE1CFF1C8A95D1F7CE01F0
:103EC0000196F50119958F73C82A96E0CC0CDD1C7C
:103ED000EE1CFF1C9A95D1F7CE010296F5011995BB
:103EE0008F73C82A26E0CC0CDD1CEE1CFF1C2A9523
:103EF000D1F7CE010396F50119958F73C82A36E0E4
:103F0000CC0CDD1CEE1CFF1C3A95D1F7CE010496BB
:103F1000F50119958F73C82A46E0CC0CDD1CEE1C08
:103F2000FF1C4A95D1F7CE010596F50119958F73BF
:103F3000C82A2696EFCE982F907C903841F4807C4A
:103F4000803869F42196CE01F5011995F8CF8E7F5E
:103F50008D3F28F02196CE01F5011995F8CFC12C9F
:103F6000D12C7601D7CE1F93CF93DF9300D01F9231
:103F7000CDB7DEB710E0AE014F5F5F4F64ED78E183
:103F80000E94741E49815A816B817C81452B462B8E
:103F9000472B11F01F5FEFCF812F0F900F900F90E5
:103FA0000F90DF91CF911F9108951F93CF93DF93CF
:103FB00000D01F92CDB7DEB710E0AE014F5F5F4F6C
:103FC00067ED78E10E94741E49815A816B817C8182
:103FD000452B462B472B11F01F5FEFCF812F0F9002
:103FE0000F900F900F90DF91CF911F9108956AEB82
:103FF00078E180E00E94941962EB78E181E00E9410
:1040000094196AEA78E182E00E94941962EA78E100
:1040100086E00E9494196AE978E187E00E94941989
:1040200062E978E183E00E9494196AE878E184E02B
:104030000E94941962E878E185E00C949419CF937A
:10404000823069F4C4E0C15068F088E0C89FB001D4
:1040500011246E59774E8C2F0E949419F4CFCF9172
:104060000C94F71FCF9108950F931F93522F209117
:104070007216309173162817390789F190937316C9
:10408000809372168B0130E020E00093FC0A1093BD
:10409000FD0A2093FE0A3093FF0A4093F50A5093DD
:1040A000F60A8452914A21F410929D0710929107CA
:1040B00084E796E10E944EEB81E0209172163091E8
:1040C00073162452314A09F080E00E941F2082E0DA
:1040D00080934F0281E080930C0B109292071F9106
:1040E0000F91089520E040E070E060E084E291EA02
:1040F0000C943420E0919107EE2389F0E150E09395
:10410000910788E0E89FF0011124EF59F84F628190
:10411000738127814681808191810C9434200C9495
:10412000722020E044E064E184E796E10E9456EBCF
:1041300081E020917216309173162452314A09F0B1
:1041400080E00E941F2084E796E10C944EEB4FEF35
:104150005FEF0C94261AAF92BF92CF92DF92EF924C
:10416000FF920F931F93CF93DF9300D01F92CDB791
:10417000DEB76C015B017A0110E000E00E151F054F
:10418000E8F419821A821B821C82AE014F5F5F4FD6
:10419000B501C6010E94741E6C0169817A818B8110
:1041A0009C81611571058105910541F0A701401BB6
:1041B000510B0E94261A080F191FE0CFC8010F905B
:1041C0000F900F900F90DF91CF911F910F91FF9063
:1041D000EF90DF90CF90BF90AF900895CF92DF9295
:1041E000EF92FF920F931F93CF93DF9300D01F9214
:1041F000CDB7DEB77C01062F6A01122F11160CF025
:104200003EC0AE014F5F5F4F64ED78E1C7010E9491
:10421000741E7C0169817A818B819C816115710595
:104220008105910561F16D3371058105910509F4F1
:104230004BC06E3771058105910509F445C06A329E
:1042400071058105910549F507FF10C080EA90E1ED
:104250000E3F11F08EEA99E1412F012E000C550B13
:1042600064ED78E10E94AB20181B5EC065E470E04D
:1042700080E090E00E94A720115041F510E0812FCE
:104280000F900F900F900F90DF91CF911F910F9192
:10429000FF90EF90DF90CF90089564327105810513
:1042A000910571F4C114D10459F0412F012E000C75
:1042B000550B64ED78E1C6010E94AB20181B9ECF20
:1042C0000E94A72011509ACF07FDC0CF61E08981DD
:1042D0009A81AB81BC81CD97A105B10509F460E05D
:1042E000600F6A30ACF01150862F6AE00F94300FE7
:1042F000092F682F880F770B605D7F4F072E000C0A
:10430000880B990B0E94A720112309F4B7CF602FC7
:10431000062E000C770B605D7F4F072E000C880B7C
:10432000990B0E94A7201150112309F4A7CF412F08
:10433000012E000C550B64ED78E1C7010E94AB2003
:10434000181B9DCF4FEF5FEF67ED78E10C94AB202A
:104350004FEF5FEF64ED78E10C94AB2090917B160A
:10436000691710F06FEF690F262F30E040917C162F
:10437000403161F4943051F4215A3D4FF90160818C
:10438000680F606884E796E10C9446EB255A3D4F30
:10439000F5CF2F923F924F925F926F927F928F92C2
:1043A0009F92AF92BF92CF92DF92EF92FF920F93C4
:1043B0001F93CF93DF9300D0CDB7DEB74C013B0105
:1043C0005A01222E3B8328014091FC0A5091FD0A9C
:1043D0006091FE0A7091FF0A411551056105710552
:1043E00079F081E0141615060CF080E080939207B6
:1043F0001092FC0A1092FD0A1092FE0A1092FF0A17
:10440000109192073090E60A1092E60A311005C02A
:1044100080914F02882309F4A5C0C2010E94B31FF6
:10442000082F80E0C114D10419F0C6010E94B31F07
:104430001A821982E114F104B1F4402F50E0282FC0
:1044400030E0CA01820F931F45976CF484E190E03D
:10445000841B950B821B930B97FD01969595879571
:104460008A8381E0898301E024ED38E1A201BE0165
:104470006F5F7F4FCE0102960E94C8AFE114F10436
:1044800091F08A81882321F01A8289818F5F898344
:1044900000E027ED38E1A701BE016F5F7F4FCE013D
:1044A00002960E94C8AFC114D10459F000E024ED77
:1044B00038E1A601BE016F5F7F4FCE0102960E94D8
:1044C000C8AF63E080E00E94AE216BE570E080E061
:1044D00090E0112321F060E270E080E090E00E9423
:1044E000A720C3010E94A8216DE570E080E090E064
:1044F000112321F060E270E080E090E00E94A720AC
:10450000C4010E94B31F63E092E1981B892F0E94AF
:10451000AE2160E270E080E090E0112321F06BE5D5
:1045200070E080E090E00E94A720C4010E94A821D2
:1045300060E270E080E090E0112321F06DE570E032
:1045400080E090E00E94A720332049F0111102C0C2
:10455000A22CBB80A114B104D9F0F501199581E01A
:1045600080939D070F900F900F90DF91CF911F9137
:104570000F91FF90EF90DF90CF90BF90AF909F9002
:104580008F907F906F905F904F903F902F90089505
:104590000E947A20E4CFCF92DF92EF92FF920F93A6
:1045A0001F9382E1C82E89E1D82EF12CE12C04E181
:1045B00019E130E020E048E756EC65EF78E189E664
:1045C00091E10E94C9211F910F91FF90EF90DF9020
:1045D000CF900895CF92DF92EF92FF9269017A0116
:1045E0000E94AE21C701B601FF90EF90DF90CF90FF
:1045F0000C94A720CF92DF92FF920F931F93CF933B
:10460000DF938C01EB01C090100BD090110BF09058
:104610000F0B61E080E00E94AE2123E1A6016F2D27
:10462000C8010E94EE20182F209711F16AE370E074
:1046300080E090E00E94A720CE010E94D51F8F5FEE
:10464000115061E0181708F462E020E230E040E029
:1046500050E094E1981B892F0E94EA22CE01DF915D
:10466000CF911F910F91FF90DF90CF900C94A221DA
:10467000DF91CF911F910F91FF90DF90CF90089520
:104680000F931F93CF93DF93FC01EB018091FC0A02
:104690009091FD0AA091FE0AB091FF0AB7FF08C0F1
:1046A0001092FC0A1092FD0A1092FE0A1092FF0A64
:1046B0008091000B9091010BA091020BB091030B24
:1046C0004091FC0A5091FD0A6091FE0A7091FF0A28
:1046D00084179507A607B70744F48093FC0A9093C4
:1046E000FD0AA093FE0AB093FF0A80914F0288232F
:1046F000E1F06091FC0A7091FD0A8091FE0A9091B0
:10470000FF0A0091040B1091050B2091060B3091CC
:10471000070B600F711F821F931F1995BC018091B9
:104720000A0B90910B0B0E94FA228091E60A8111EC
:1047300008C08091F90A8823D1F180914F02882323
:10474000B1F18091080B9091090B0097B1F0409165
:10475000FC0A5091FD0A6091FE0A7091FF0A0091D7
:10476000040B1091050B2091060B3091070B400FA5
:10477000511F621F731FFE011995E091FA0AF09113
:10478000FB0A309741F08091F90A811103C08091B2
:10479000E60A811119958091E60A1092E60A8823AB
:1047A00031F0DF91CF911F910F910C947A20DF911E
:1047B000CF911F910F9108956FE072E788ED97E711
:1047C0000C94402368E272E787EE97E70C9440234D
:1047D00063E472E786EF97E70C94402366E572E79F
:1047E00088E39CE10C94402366E578E18CE19EE14E
:1047F0000C94402369E678E18BE79CE10C9440231C
:1048000062E878E185ED9DE10C944023CF92DF9240
:10481000EF92FF920F931F93CF93DF93C82ED62E64
:104820007A01E901209709F467C0C901002381F1E9
:104830000E94B31F182F2EE330E040E050E0C1107B
:1048400004C020E230E040E050E06D2D80E00E94A6
:10485000EA2222E1211B4091100B5091110B609133
:104860000F0BC7010E94EE20F82E112309F448C057
:104870006AE370E080E090E00E94A720FF2059F0FA
:1048800060E270E080E090E00E94A720FA94F6CF0A
:104890000E94D51FCFCFCE01002351F0DF91CF91E1
:1048A0001F910F91FF90EF90DF90CF900C94A82173
:1048B000DF91CF911F910F91FF90EF90DF90CF90FC
:1048C0000C94A2212EE330E040E050E06D2D80E01A
:1048D0000E94EA224091100B5091110B22E160914D
:1048E0000F0BC701DF91CF911F910F91FF90EF90B8
:1048F000DF90CF900C94EE208111E4CF10E0A1CF97
:10490000DF91CF911F910F91FF90EF90DF90CF90AB
:1049100008950F93CF93DF93EA01811101C020E244
:10492000022E000C330B440B550B80E00E94EA2250
:104930004091100B5091110B22E160910F0BCE01B1
:104940000E94EE20C82FCC2341F060E270E080E0AE
:1049500090E00E94A720C150F6CF602F000F770B88
:10496000880B990BDF91CF910F910C94A720CF92D8
:10497000DF92EF92FF920F931F93CF93DF930E94EA
:104980004FE6D091F50AC0E0D11131C08091F70A0D
:104990008823C1F080914F02882361F081E09091DB
:1049A000F70A911180E003E023E049EC58E16C2F15
:1049B0000E948924DF5FCF5FC43031F787E08093A6
:1049C000F60A0CC08091E60A1092E60A882311F3D9
:1049D0000E947A2080910C0B8823E1F2DF91CF9125
:1049E0001F910F91FF90EF90DF90CF900895D130FD
:1049F00009F03FC08091F70A8130E9F080914F02C1
:104A00008823C1F211E08091F70A813009F010E0AB
:104A100060912E1270912F1280913012909131126C
:104A20000E94E41D00E09C0141E051E16C2F812FC8
:104A30000E940624BFCF8091E60A1092E60A8823DE
:104A4000E9F20E949FE6D12CC12CE12C10ECF12E52
:104A500009E714E420E030E040E85FE36EE272E151
:104A600081E091E10E94ABE680910C0B882331F24A
:104A7000B5CFD23009F00CC18091F70A8230D1F065
:104A800080914F02882309F495CF11E08091F70AB5
:104A9000823009F010E060913212709133128091EF
:104AA0003412909135120E94E41D00E09C014AEFFF
:104AB00050E1BCCF8091E60A1092E60A882301F308
:104AC0000E949FE6D12CC12CE12C10ECF12E09E7BD
:104AD00014E420E030E040E85FE362E372E18AEF53
:104AE00090E10E94ABE680910C0B882349F276CFCF
:104AF0008091F70A8330D1F080914F02882309F426
:104B000059CF11E08091F70A833009F010E06091ED
:104B100036127091371280913812909139120E949A
:104B2000E41D00E09C0143EF50E180CF8091E60A54
:104B30001092E60A882301F30E949FE6D12CC12C33
:104B4000E12C10ECF12E09E714E420E030E040E81D
:104B50005FE366E372E183EF90E10E94ABE6809150
:104B60000C0B882349F23ACF8091F70A8430D1F0B8
:104B700080914F02882309F41DCF11E08091F70A3C
:104B8000843009F010E060913A1270913B128091EC
:104B90003C1290913D120E94E41D00E09C014CEEFD
:104BA00050E144CF8091E60A1092E60A882301F38F
:104BB0000E949FE6D12CC12CE12C10ECF12E09E7CC
:104BC00014E420E030E040E85FE36AE372E18CEE59
:104BD00090E10E94ABE680910C0B882349F2FECE57
:104BE0008091F70A8530D1F080914F02882309F433
:104BF000E1CE11E08091F70A853009F010E0609174
:104C00004A1270914B1280914C1290914D120E9459
:104C1000E41D00E09C0147EE50E108CF8091E60AD8
:104C20001092E60A882301F30E949FE6D12CC12C42
:104C3000E12C10ECF12E09E714E420E030E0A901AA
:104C40006AE472E187EE90E10E94ABE680910C0B82
:104C5000882351F2C3CE8091E60A1092E60A882397
:104C600039F10E949FE6D12CC12CE12C10ECF12EE1
:104C700009E714E420E030E0A9016EE472E18DED73
:104C800090E10E94ABE680910C0B882389F0A6CEC0
:104C9000D33009F42DCFD43009F466CFD53009F4E0
:104CA0009FCFD63009F086CE8091F70A863099F2F0
:104CB00080914F02882309F47DCE11E08091F70A9C
:104CC000863009F010E060914E1270914F12809181
:104CD0005012909151120E94E41D00E09C014DED94
:104CE00050E1A4CE4F925F926F927F928F929F92EB
:104CF000AF92BF92CF92DF92EF92FF920F931F93EA
:104D0000CF93DF9300D000D0CDB7DEB7C0900E12A6
:104D1000D0900F12E0901012F090111280911212A8
:104D200090911312A0911412B09115128C159D053B
:104D3000AE05BF0510F4D701C601C0900A12D0908D
:104D40000B12E0900C12F0900D12BC01CD016C150D
:104D50007D058E059F0510F4C701B6010F94A908C3
:104D60002B013C010E944FE62091F50A2E831D8203
:104D70008E81811143C08091F70A8823E1F08091F0
:104D80004F02882361F081E09091F70A911180E051
:104D900003E023E049EC58E16D810E9489248E8173
:104DA0008F5F8E832D812F5F2D83243009F788E05C
:104DB0008093F60A0CC08091E60A1092E60A8823D6
:104DC000F1F20E947A2080910C0B8823C1F2269682
:104DD0000FB6F894DEBF0FBECDBFDF91CF911F910C
:104DE0000F91FF90EF90DF90CF90BF90AF909F908A
:104DF0008F907F906F905F904F9008952E8121301B
:104E000009F087C08091F70A8130E9F080914F0264
:104E1000882329F211E08091F70A813009F010E02F
:104E200060913E1270913F12809140129091411218
:104E30000E94051C00E09C0147E351E16D81812F38
:104E40000E940624ACCF8091E60A1092E60A8823DD
:104E5000E9F20E949FE62AE037ED43E25DE3C301F9
:104E6000B2010F940A0920E030E0A9010F94A80FC5
:104E70004B015C0120E030E040E05FE40F94A408C7
:104E800087FD05C0812C912CA12C5FE4B52E2AE072
:104E900037ED43E25DE360913E1270913F128091E5
:104EA0004012909141120F940A0920E030E0A901CC
:104EB0000F94A80F20E030E040E85FE30F94A70FC5
:104EC0000F941B1169837A838B839C83C501B40182
:104ED0000F9414117B018C0121E0E21AF108010901
:104EE0001109912C812C4EEEA42E43E2B42EC980E0
:104EF000DA8021E030E040E050E06EE372E187E3E9
:104F000091E10E94DDE580910C0B882309F47ECFAE
:104F10005ECF8E81823009F0C8C18091F70A82305D
:104F2000D1F080914F02882309F439CF11E08091AC
:104F3000F70A823009F010E060914212709143123A
:104F400080914412909145120E94051C00E09C0142
:104F50004DE251E173CF8091E60A1092E60A882370
:104F600001F30E949FE660911612709117128091D2
:104F70001812909119120F94A90820E030E0A901AD
:104F80000F94A80F4B015C0120E030E040E05FE4AB
:104F90000F94A40887FD05C0812C912CA12C3FE41F
:104FA000B32E20E030E0A9016091421270914312CB
:104FB00080914412909145120F94A80F20E030E0A8
:104FC00048EC52E40F94A70F0F941B1169837A8366
:104FD0008B839C83C501B4010F9414117B018C0158
:104FE00024E6E21AF10801091109912C812C28EE1E
:104FF000A22E23E2B22EC980DA8024E630E040E01F
:1050000050E062E472E18DE291E10E94DDE5809181
:105010000C0B882309F485CFDACE8091F70A833010
:10502000D1F080914F02882309F4B9CE11E080912C
:10503000F70A833009F010E0609146127091471230
:1050400080914812909149120E94051C00E09C0139
:1050500044E251E1F3CE8091E60A1092E60A8823F9
:1050600001F30E949FE62AE037ED43E25DE3C301CE
:10507000B2010F940A0920E030E0A9010F94A80FB3
:105080004B015C0120E030E040E05FE40F94A408B5
:1050900087FD05C0812C912CA12C9FE4B92E2AE01C
:1050A00037ED43E25DE360914612709147128091C3
:1050B0004812909149120F940A0920E030E0A901AA
:1050C0000F94A80F20E030E040E85FE30F94A70FB3
:1050D0000F941B1169837A838B839C83C501B40170
:1050E0000F9414117B018C0121E0E21AF1080109EF
:1050F0001109912C812C8EEEA82E83E2B82EC98046
:10510000DA8021E030E040E050E066E472E184E2E1
:1051100091E10E94DDE580910C0B882309F481CF99
:1051200056CE8091F70A8430E1F080914F028823B7
:1051300009F435CE11E08091F70A843009F010E0CF
:1051400060910A1270910B1280910C1290910D12C5
:105150000F94A9080E94241B00E09C014DE151E13D
:105160006DCE8091E60A1092E60A8823F1F20E9441
:105170009FE605E819E124E630E040E050E06AE00F
:1051800072E18DE191E10E944BE780910C0B882345
:1051900061F21DCE8091F70A8530E1F080914F02D7
:1051A000882309F4FCCD11E08091F70A853009F0DD
:1051B00010E060910E1270910F1280911012909178
:1051C00011120F94A9080E94241B00E09C0146E1E3
:1051D00051E134CE8091E60A1092E60A8823F1F27A
:1051E0000E949FE603E819E124E630E040E050E049
:1051F0006EE072E186E191E10E944BE780910C0B39
:10520000882361F2E4CD8091F70A8630E1F0809145
:105210004F02882309F4C3CD11E08091F70A86304C
:1052200009F010E060911212709113128091141223
:10523000909115120F94A9080E94241B00E09C0174
:105240004FE051E1FBCD8091E60A1092E60A8823F7
:10525000F1F20E949FE601E819E12AE030E040E027
:1052600050E062E172E18FE091E10E944BE78091B2
:105270000C0B882361F2ABCD8091E60A1092E60A0E
:10528000882339F10E949FE60FE719E124E630E018
:1052900040E050E066E172E188E091E10E944BE776
:1052A00080910C0B8823A9F092CD8E81833009F474
:1052B000B4CE843009F435CF853009F46BCF863015
:1052C00009F4A1CF873009F06ACD8091F70A8730C1
:1052D00099F280914F02882309F461CD11E0809109
:1052E000F70A873009F010E06091161270911712DA
:1052F00080911812909119120F94A9080E94241BF2
:1053000000E09C0148E051E199CD0F931F93CF93AA
:10531000DF930E944FE6D091F50AC0E0D1112DC075
:105320008091F70A8823C1F080914F02882361F0B1
:1053300081E09091F70A911180E003E023E049ECCD
:1053400058E16C2F0E948924DF5FCF5FC43031F7B2
:1053500085E08093F60A0CC08091E60A1092E60A76
:10536000882311F30E947A2080910C0B8823E1F2AC
:10537000DF91CF911F910F910895D130B1F58091B8
:10538000F70A8130E9F080914F028823E9F211E0B9
:105390008091F70A813009F010E060911E1270913F
:1053A0001F1280912012909121120E943D1B00E05B
:1053B0009C014EE551E16C2F812F0E940624C4CF41
:1053C0008091E60A1092E60A8823E9F20E949FE69D
:1053D0004DE759E16EE172E18EE591E10E94CBE784
:1053E00080910C0B882379F2C3CFD23009F07BC0B7
:1053F0008091F70A8230D1F080914F02882309F41E
:10540000A3CF11E08091F70A823009F010E060919B
:1054100022127091231280912412909125120E94E1
:105420003D1B00E09C0143E551E1C5CF8091E60AB8
:105430001092E60A882301F30E949FE64BE759E1A8
:1054400062E272E183E591E10E94CBE780910C0B6F
:10545000882391F28DCF8091F70A8330D1F080912B
:105460004F02882309F470CF11E08091F70A83304E
:1054700009F010E060912612709127128091281295
:10548000909129120E943D1B00E09C0148E451E1EB
:1054900092CF8091E60A1092E60A882301F30E94D7
:1054A0009FE649E759E166E272E188E491E10E94F2
:1054B000CBE780910C0B882391F25ACF8091E60ABA
:1054C0001092E60A8823C9F00E949FE647E759E157
:1054D0006AE272E18DE391E10E94CBE780910C0BCF
:1054E000882359F045CFD33009F4B5CFD43009F033
:1054F0002BCF8091F70A843009F380914F028823E3
:1055000009F422CF11E08091F70A843009F010E00D
:1055100060912A1270912B1280912C1290912D1271
:105520000E943D1B00E09C014DE351E144CF7F927E
:105530008F929F92AF92BF92CF92DF92EF92FF92A3
:105540000F931F93CF93DF930E944FE6C091F50A0C
:10555000D0E043E0742EC11136C08091F70A882351
:10556000C1F080914F02882361F081E09091F70AA9
:10557000911180E003E023E049EC58E16D2F0E9497
:105580008924CF5FDF5FD43031F785E08093F60A5E
:105590000CC08091E60A1092E60A882311F30E945B
:1055A0007A2080910C0B8823E1F2DF91CF911F913B
:1055B0000F91FF90EF90DF90CF90BF90AF909F90B2
:1055C0008F907F900895C13069F59091F70A9130DE
:1055D000B9F080914F028823A1F281E0913009F067
:1055E00080E09091170826EC38E1911102C022EC7E
:1055F00038E101E044ED50E16D2F0E940624C1CF57
:105600008091E60A1092E60A882319F38091170820
:105610008C278093170870924F0280910C0B88237F
:10562000C1F2C3CFC23009F0A8C08091F70A82301E
:10563000E1F080914F02882309F4A3CF11E080911B
:10564000F70A823009F010E0609121027091220285
:1056500080912302909124020E94E41D00E09C01AD
:105660004DEC50E16D2F812FC8CF8091E60A10924A
:10567000E60A8823F1F2D12CC12CE12CF12C02E8AE
:1056800013E420E030E0A90161E272E08DEC90E1EA
:105690000E94ABE680910C0B882359F286CF809153
:1056A000F70A8330D1F080914F02882309F469CF43
:1056B00011E08091F70A833009F010E060911D023B
:1056C00070911E0280911F02909120020E94E41DA1
:1056D00000E09C0146EC50E1C5CF8091E60A1092B3
:1056E000E60A882301F3D12CC12CE12CF12C02E82D
:1056F00013E420E030E0A9016DE172E086EC90E176
:105700000E94ABE680910C0B882369F24ECF80910A
:10571000E60A1092E60A8823D9F120E030E048EC4E
:1057200052E46091190270911A0280911B029091CB
:105730001C020F940A0920E030E0A9010F94A80F81
:105740000F941B11912C812C80E0A82E84E2B82E9E
:105750006B0118EEE12E13E0F12E00E010E020E0E6
:1057600030E0A90169E172E08EEB90E10E94DDE595
:1057700080910C0B882361F018CFC33009F48FCFD0
:10578000C43009F0FECE8091F70A843009F4BFCF0F
:1057900080914F02882309F4F4CE11E08091F70A3A
:1057A000843009F010E06091190270911A02809122
:1057B0001B0290911C020E948A1C00E09C014EEB8F
:1057C00050E150CF4F925F926F927F928F929F9253
:1057D000AF92BF92CF92DF92EF92FF920F931F93FF
:1057E000CF93DF930E944FE6D091F50AC0E0552495
:1057F000539453E0452E68E9662E6DE6762ED1115E
:1058000041C08091F70A882301F180914F028823DB
:1058100061F081E09091F70A911180E003E023E0CC
:1058200049EC58E16C2F0E94892480910D0888234F
:1058300009F41DC1D33009F4B6C084E0DF5FCF5F47
:10584000C430E9F68093F60A0CC08091E60A109203
:10585000E60A8823D1F20E947A2080910C0B8823DB
:10586000A1F2DF91CF911F910F91FF90EF90DF9008
:10587000CF90BF90AF909F908F907F906F905F90F0
:105880004F900895D13009F058C08091F70A8130C7
:10589000E9F080914F02882341F211E08091F70AEC
:1058A000813009F010E06091A30B7091A40B8091FE
:1058B000A50B9091A60B0E948A1C00E09C0148E079
:1058C00059E16C2F812F0E940624AFCF8091E60A08
:1058D0001092E60A8823E9F220E030E048EC52E436
:1058E0006091A30B7091A40B8091A50B9091A60BD6
:1058F0000F940A0920E030E0A9010F94A80F0F943B
:105900001B11912C812C30E0A32E34E2B32E6B01BD
:105910001CE3E12E16E8F12E01E010E020E030E07B
:10592000A90163EA7BE088E099E10E94DDE58091CE
:105930000C0B882309F4ADCF94CFD23009F075CF8A
:105940008091F70A8230C1F080914F02882309F4D8
:105950006CCF81E09091F70A923009F080E090914D
:105960000D0826EC38E1911102C022EC38E101E08B
:1059700044EB50E16C2FA7CF80910D089091E60A7F
:105980001092E60A992301F3852580930D08409231
:105990004F026114710411F00E94986D80910C0BFC
:1059A000882391F25ECF8091F70A8330F1F08091E5
:1059B0004F02882309F441CF11E08091F70A833028
:1059C00009F010E06091090870910A0880910B08B5
:1059D00090910C080E94471C00E09C014AEA50E1AB
:1059E0006C2F812F0E94062428CF8091E60A109206
:1059F000E60A8823E1F20E949FE620E030E04AE7D1
:105A000054E46091090870910A0880910B08909104
:105A10000C080F940A0920E030E0A9010F94A80FA8
:105A200020E030E84BEB54E40F94A70F0F941B11C8
:105A300088E9882E8DE6982E9AEFA92E93E2B92E4A
:105A40006B0116EDE12E16E0F12E00E010E02CEDDA
:105A500035E040E050E069E078E08AEA90E10E94B9
:105A6000DDE580910C0B882309F4A1CFFACE83E009
:105A7000E5CE0F93CF93DF93CDB7DEB700E22EE3F1
:105A800049855A8568858F810E948924DF91CF914D
:105A90000F9108952F923F924F925F926F927F9253
:105AA0008F929F92AF92BF92CF92DF92EF92FF922E
:105AB0000F931F93CF93DF930E943A1E282E0E94CC
:105AC0004FE6C091F50A65E0362E211002C056E07F
:105AD000352ED0E03EE6432E31E1532E4FE9642EC1
