:100000000C94C8180C94F9180C94F9180C94F9185D
:100010000C94F9180C94F9180C94F9180C94F9181C
:100020000C94F9180C94F9180C94F9180C94F9180C
:100030000C94F9180C94F9180C94F9180C94F918FC
:100040000C94F9180C9476370C94F9180C94F91850
:100050000C94F9180C94F9180C9497330C9492D1D1
:100060000C94F9180C944E9F0C943A9F0C94F91828
:100070000C94F9180C94F9180C94F9180C94F918BC
:100080000C94F9180C94F9180C94F9180C94F918AC
:100090000C94F9180C94F9180C94F9180C94F9189C
:1000A0000C94F9180C94F9180C94F9180C94F9188C
:1000B0000C94F9180C94F9180C94F9180C94F9187C
:1000C0000C94F9180C94F9180C94F9180C94F9186C
:1000D0000C94F9180C94F9180C946F9D0C94449F8F
:1000E0000C94F918084AD73B3BCE016E84BCBFFD87
:1000F000C12F3D6C74319ABD56833DDA3D00C77FF8
:1001000011BED9E4BB4C3E916BAAAABE0000008090
:100110003F05A84CCDB2D44EB93836A9020C50B91F
:10012000918688083CA6AAAA2ABE000000803F004B
:100130004E414E494E495459494E46CDCCCC3D0ACC
:10014000D7233C17B7D13877CC2B329595E6241FAF
:10015000B14F0A000020410000C84200401C462068
:10016000BCBE4CCA1B0E5AAEC59D7400407A10F33B
:100170005A00A0724E18090010A5D4E80000E876D5
:1001800048170000E40B54020000CA9A3B0000002C
:10019000E1F505000080969800000040420F000045
:1001A00000A08601000000102700000000E8030006
:1001B0000000006400000000000A000000000001D0
:1001C00000000000002C76D888DC674F0823DFC1D0
:1001D000DFAE59E1B1B796E5E3E453C63AE651998B
:1001E0007696E8E6C28426EB898C9B62ED407C6FB4
:1001F000FCEFBC9C9F40F2BAA56FA5F490055A2A6B
:10020000F75C936B6CF9676DC11BFCE0E40D47FE76
:10021000F520E6B500D0ED902E030094357705006B
:1002200080841E080000204E0A000000C80C3333F2
:1002300033330F986E12831141EF8D2114893BE601
:100240005516CFFEE6DB18D1844B381BF77C1D908A
:100250001DA4BBE424203284725E228100C9F124F3
:10026000ECA1E53D2741425300504C41004E6578DA
:100270007420506F696E74002569202F2025750049
:10028000473239533100473239533200436C696386
:100290006B20746F20426567696E00486F6D696EF0
:1002A000672058595A0053746F72652053657474EF
:1002B000696E6773004C6F61642053657474696E76
:1002C000677300426564205A004661646520486592
:1002D00069676874004F6666004F6E00426564206F
:1002E0004C6576656C696E67004C6576656C20427E
:1002F0006564004D6F74696F6E004E6F7A7A6C653D
:100300000046616E20537065656400436F6E6669D8
:100310006775726174696F6E00526573746F726590
:100320002044656661756C7473004C6F6164205382
:10033000657474696E67730053746F7265205365DA
:100340007474696E67730050726568656174202407
:1003500020436F6E6600416476616E63656420536E
:10036000657474696E6773004D61696E003F004289
:1003700061636B0053746F70004E6F204D6564694C
:1003800061005072696E742066726F6D204D6564F5
:100390006961004368616E6765204D65646961004D
:1003A0004D32310054656D7065726174757265000F
:1003B0004D6F74696F6E00526573756D6520507274
:1003C000696E7400436F6E66696775726174696FF8
:1003D0006E0054756E650053746F70205072696EB4
:1003E00074005061757365205072696E7400496EB7
:1003F000666F2053637265656E003F0053746172CF
:1004000074205072696E740043616E63656C0050B5
:1004100072696E740043616E6E6F7420656E7465F0
:1004200072207375626469723A2000052E2E004DA9
:1004300061696E002100486F74656E6420746F6F8F
:1004400020636F6C64004261636B0050726F636580
:100450006564004D6F74696F6E0044697361626C0E
:1004600065205374657070657273004D38340042B6
:100470006564204C6576656C696E6700486F6D65D4
:10048000205A004732385A00486F6D65205900479E
:1004900032385900486F6D6520580047323858008F
:1004A0004175746F20486F6D6500473238004D61AB
:1004B000696E0069026502436F6F6C646F776E004E
:1004C0005072656865617420240046616E20537027
:1004D000656564004E6F7A7A6C65004D61696E00E7
:1004E0004261627973746570205A00416476616E6E
:1004F0006365204B00466C6F770046616E20537039
:10050000656564004E6F7A7A6C6500426564205AB6
:10051000005370656564004D61696E006F70656EB3
:1005200000545249474745524544003A20007A5FFB
:100530006D6178007A5F6D696E00795F6D6178003A
:10054000795F6D696E00785F6D617800785F6D69C5
:100550006E005265706F7274696E6720656E6473A9
:10056000746F70207374617475730A0020746F6FF8
:10057000206C6F6E6720657874727573696F6E207A
:1005800070726576656E7465640A0020636F6C64D2
:1005900020657874727573696F6E20707265766508
:1005A0006E7465640A000000000000000000000096
:1005B00000005761726E696E673A20486F6D696E10
:1005C000672042756D702044697669736F72203CB4
:1005D00020310A0002020400004D4300004D430098
:1005E0000048430000A0400000A040000000400080
:1005F000000001000000010000800055555500007A
:1006000000400033333300AAAA2A00499224000094
:10061000002000C7711C0099991900D14517005599
:100620005515003BB11300244912001111110000AF
:100630000010000F0F0F00E3380E0043790D00CCBF
:10064000CC0C00C3300C00E8A20B0064210B00AA04
:10065000AA0A00703D0A009DD80900427B09009259
:10066000240900DCD3080088880800104208000034
:10067000000800F0C1070087870700755007007168
:100680001C07003EEB0600A1BC0600699006006650
:10069000660600703E06006118060017F405007437
:1006A000D105005BB00500B29005006272050055EF
:1006B00055050078390500B81E0500050505004EF2
:1006C000EC040087D40400A1BD040090A7040049F5
:1006D000920400C17D0400EE690400C75604004482
:1006E0004404005C320400082104004110040000AE
:1006F0000004003FF00300F8E0030026D20300C32B
:10070000C30300CCB503003AA803000A9B030038DA
:100710008E0300C08103009F750300D06903005061
:100720005E03001D53030034480300913D03003372
:1007300033030016290300381F0300971503003008
:100740000C0300030303000BFA020049F10200BA94
:10075000E802005CE002002DD802002DD002005912
:10076000C80200B0C0020031B90200DAB10200AA2A
:10077000AA0200A0A30200BC9C0200FA9502005C41
:100780008F0200DF88020082820200457C0200277F
:1007900076020027700200436A02007C640200D0E7
:1007A0005E02003F590200C8530200FFFDFCFAF848
:1007B000F6F4F2F0EEECEAE9E7E5E3E1E0DEDCDABC
:1007C000D9D7D5D4D2D0CFCDCBCAC8C7C5C3C2C064
:1007D000BFBDBCBAB9B7B6B4B3B2B0AFADACAAA9DD
:1007E000A8A6A5A4A2A1A09E9D9C9A99989795942D
:1007F0009392908F8E8D8B8A89888786848382815D
:10080000807F7E7D7B7A797877767574737271706C
:100810006F6E6D6C6B6A6968676665646362616060
:100820005F5E5D5C5B5A5958585756555453525148
:1008300050504F4E4D4C4B4A4A4948474646454416
:1008400043424241403F3E3E3D3C3B3B3A393838D3
:1008500037363535343332323130302F2E2E2D2C81
:100860002B2B2A2929282727262525242323222123
:100870002120201F1E1E1D1C1C1B1B1A19191818B5
:10088000171616151514131312121111100F0F0E3F
:100890000E0D0D0C0C0B0A0A0909080807070606BD
:1008A000050504040303020201000000004D43009B
:1008B000004D43000048430000000000000000001D
:1008C00000000053657474696E67732053746F720F
:1008D000656400290A002062797465733B206372A5
:1008E00063200053657474696E67732053746F726C
:1008F000656420280048617264636F646564204405
:10090000656661756C742053657474696E677320D5
:100910004C6F616465640A003B200020204D393033
:1009200030204B004C696E65617220416476616EC7
:1009300063653A0020440020490020204D333031C7
:100940002050005049442073657474696E67733A8F
:100950000020460020480020204D3134352053002F
:100960004D6174657269616C206865617475702091
:10097000706172616D65746572733A002020473250
:1009800039205334205A00204A0020204732392091
:10099000533320490020204D3432302053004D6520
:1009A000736820426564204C6576656C696E673AB1
:1009B0000020204D323036205800486F6D65206F82
:1009C00066667365743A00204A0020530020204D6B
:1009D000323035204200416476616E6365643A20AE
:1009E000423C6D696E5F7365676D656E745F7469B7
:1009F0006D655F75733E20533C6D696E5F6665651E
:100A000064726174653E20543C6D696E5F747261FE
:100A100076656C5F66656564726174653E204A3C0C
:100A20006A756E635F6465763E0020540020520054
:100A300020204D323034205000416363656C657274
:100A40006174696F6E2028756E6974732F73322913
:100A50003A20503C7072696E745F616363656C3EEE
:100A600020523C726574726163745F616363656C8C
:100A70003E20543C74726176656C5F616363656CA3
:100A80003E0020204D3230312058004D6178696D94
:100A9000756D20416363656C65726174696F6E206A
:100AA00028756E6974732F7332293A0020204D32F5
:100AB00030332058004D6178696D756D206665652D
:100AC0006472617465732028756E6974732F73295D
:100AD0003A0053746570732070657220756E697486
:100AE0003A0020440020204D323030205300204472
:100AF000697361626C65640A0046696C616D656E5C
:100B0000742073657474696E67733A0020204D31E8
:100B100034392043203B20556E69747320696E2060
:100B200043656C736975730A0020286D6D29002078
:100B300020473231202020203B20556E69747320DD
:100B4000696E206D6D00454550524F4D20646174B3
:100B50006173697A65206572726F722E0A00290AC4
:100B6000002062797465733B2063726320002073F8
:100B7000746F7265642073657474696E6773207234
:100B80006574726965766564202800202863616C4D
:100B900063756C6174656429210A0020213D200081
:100BA000454550524F4D20435243206D69736D614E
:100BB000746368202D202873746F72656429200087
:100BC0002053697A653A2000496E6465783A2000BE
:100BD00000009643000096430000A0400000C8417A
:100BE000FB7A9D42FB7A9D4255550544CC2A5B44D5
:100BF000B80B0000B80B00006400000010270000D4
:100C0000204D61726C696E3D563833290A004545A6
:100C100050524F4D2076657273696F6E206D697307
:100C20006D617463682028454550524F4D3D002446
:100C3000F4D43050C38E20C2A24017828B701112A0
:100C40007A910D816CD90AA861E108C758660761DD
:100C50005143061E4B5D05C145A7041A4111040905
:100C60003D9803713931034036DB0265339102D47C
:100C7000305402802E1D02632CEE01752AC501B08E
:100C800028A001102781018F2564012B244B01E04E
:100C9000223401AC211F018D200D01801FFC008436
:100CA0001EED00971DDF00B81CD200E61BC6002019
:100CB0001BBC00641AB200B219A8000A19A0006A8D
:100CC000189900D117910040178B00B51684003198
:100CD000167E00B31579003A157300C7146F0058DB
:100CE000146A00EE1366008813630025135E00C7C4
:100CF000125B006C12570015125400C111510070A4
:100D0000114F0021114B00D61049008D10470046AD
:100D100010440002104200C00F4000800F3E00420D
:100D20000F3C00060F3B00CB0E3800930E37005CE3
:100D30000E3500270E3400F30D3200C10D31009046
:100D40000D3000600D2E00320D2D00050D2C00D948
:100D50000C2B00AE0C2900850C29005C0C270035FB
:100D60000C27000E0C2600E80B2400C40B2400A066
:100D70000B23007D0B23005A0B2100390B21001897
:100D80000B2000F80A1F00D90A1E00BB0A1E009D96
:100D90000A1D00800A1D00630A1C00470A1B002C64
:100DA0000A1B00110A1A00F7091A00DD091900C40C
:100DB000091900AB091900920917007B0918006393
:100DC0000917004C09160036091600200916000AFA
:100DD000091500F5081500E0081400CC081400B847
:100DE000081400A4081400900813007D0812006B7A
:100DF0000813005808120046081200340811002396
:100E00000811001208110001081100F0071000E09D
:100E1000071000D0071000C0071000B0070F00A196
:100E200007100091070E0083070F0074070F00657D
:100E3000070E0057070E0049070E003B070D002E56
:100E4000070E0020070D0013070D0006070D00F91F
:100E5000060C00ED060D00E0060C00D4060C00C8E0
:100E6000060C00BC060C00B0060C00A4060B009992
:100E7000060C008D060B0082060B0077060B006C3B
:100E8000060B0061060A0057060B004C060A0042DA
:100E9000060A0038060A002E060A0024060A001A6E
:100EA000060A001006090007060A00FD050900F4FD
:100EB000050900EB050900E2050900D9050900D084
:100EC000050900C7050900BE050900B5050800AD04
:100ED000050800A50509009C050800940508008C7C
:100EE000050800840508007C050800740508006CEE
:100EF000050700650508005D050700560508004E5A
:100F000005070047050700400508003805070031C0
:100F10000507002A050700230507001C0506001623
:100F20000507000F0507000805060002050700FB7E
:100F3000040600F5040700EE040600E8040600E2DB
:100F4000040700DB040600D5040600CF040600C930
:100F5000040600C3040600BD040600B7040600B181
:100F6000040500AC040600A6040600A00405009BCE
:100F700004060095040500900406008A0405008517
:100F8000040500800406007A04050075040500705D
:100F90000405006B04050066040500610405005C9F
:100FA00004050057040500520405004D04050048DF
:100FB000040500430405003E0404003A040500351E
:100FC000040500300404002C040500270404002359
:100FD0000405001E0404001A040400160405001190
:100FE0000404000D040400090405000404040000C6
:100FF000040400FC030400F8030400F4030400F0FC
:10100000030400EC030400E8030400E4030400E02C
:10101000030400DC030400D8030400D4030400D05C
:10102000030400CC030400C8030300C50303002429
:10103000F404D9201BC40C5C0E9804C4095F02653B
:10104000077101F405F900FB04B30048048700C1EF
:101050000369005803550003034500BE023A0084AB
:1010600002310053022A002902250004022000E474
:10107000011C00C8011900AF011700980114008479
:10108000011300710110006101100051010E0043B5
:10109000010D0036010B002B010B0020010B001588
:1010A0000109000C01090003010800FB000800F31E
:1010B000000800EB000700E4000600DE000600D890
:1010C000000600D2000600CC000500C7000500C2E3
:1010D000000500BD000400B9000400B5000400B123
:1010E000000400AD000400A9000400A5000300A254
:1010F0000003009F0004009B00030098000300957C
:1011000000020093000300900003008D0002008B9A
:1011100000030088000200860002008400030081B2
:101120000002007F0002007D0002007B00020079C7
:1011300000020077000100760002007400020072D5
:10114000000100710002006F0002006D0001006CE0
:101150000002006A000100690002006700010066E9
:1011600000010065000100640002006200010061EE
:10117000000100600001005F0002005D0001005CF2
:101180000001005B0001005A0001005900010058F5
:1011900000010057000100560001005500010054F5
:1011A00000010053000000530001005200010051F3
:1011B000000100500001004F0001004E0000004EF1
:1011C0000001004D0001004C0001004B0000004BED
:1011D0000001004A000100490001004800000048E9
:1011E00000010047000100460000004600010045E4
:1011F00000000045000100440001004300000043DE
:1012000000010042000000420001004100000041D6
:10121000000100400001003F0000003F0001003ECF
:101220000000003E0001003D0000003D0001003CC8
:101230000000003C0000003C0001003B0000003BBF
:101240000001003A0000003A0001003900000039B6
:1012500000010038000000380000003800010037AD
:1012600000000037000100360000003600000036A4
:101270000001003500000035000000350001003499
:10128000000000340000003400010033000000338F
:101290000000003300010032000000320000003284
:1012A0000001003100000031000000310001003079
:1012B00000000030000000300001002F0000002F6F
:1012C0000000002F0000002F0001002E0000002E63
:1012D0000000002E0001002D0000002D0000002D58
:1012E0000000002D0001002C0000002C0000002C4C
:1012F0000000002C0001002B0000002B0000002B40
:101300000000002B0001002A0000002A0000002A33
:101310000000002A00010029000000290000002927
:10132000000000290000002900010028000000281A
:10133000000000280000002800000028000100270D
:101340000000002700000027000000270000002701
:1013500000010026000000260000002600000026F4
:1013600000000026000100250000002500000025E7
:1013700000000025000000250000002500010024D9
:1013800000000024000000240000002400000024CD
:1013900000010023000000230000002300000023C0
:1013A00000000023000000230000002300010022B1
:1013B00000000022000000220000002200000022A5
:1013C0000000002200010021000000210000002197
:1013D0000000002100000021000000210000002189
:1013E000000100200000002000000020000000207C
:1013F000000000200000002000000020000000206D
:101400000001001F0000001F0000001F0000001F5F
:101410000000001F0000001F0000001F0001001E50
:101420000000001E0000001E0000001E000000233F
:101430002C0000B8220000561800003A0F0000B837
:10144000080000B1040000710200003E010000200D
:10145000436F756E7420583A004531006265640030
:101460002C2073797374656D2073746F707065646C
:1014700021204865617465725F49443A20005448F0
:1014800045524D414C2052554E41574159005468E8
:1014900065726D616C2052756E6177617900486587
:1014A0006174696E67204661696C656400486561B6
:1014B00074696E67206661696C6564004572723A92
:1014C000204D415854454D50004D415854454D50C4
:1014D00020747269676765726564004572723A20AC
:1014E0004D494E54454D50004D494E54454D5020A8
:1014F00074726967676572656400202F0020403A46
:10150000007C3C3E5E2B3D3F2F5B5D3B2C2A225CEA
:101510000043616E6E6F74206F70656E207375622C
:101520006469722000534420496E697420466169E1
:101530006C0053442063617264206F6B0A006F700B
:10154000656E526F6F74206661696C65640A00761F
:101550006F6C756D652E696E6974206661696C6566
:10156000640A004E6F20534420636172640A000ACB
:101570004D3234004D3233202573002E0A006F7037
:10158000656E206661696C65642C2046696C653AFD
:10159000200046696C652073656C65637465640A38
:1015A000002053697A653A200046696C65206F70A7
:1015B000656E65643A2000454E4420535542524FB3
:1015C0005554494E450A002220706F730022207046
:1015D0006172656E743A2200535542524F55544918
:1015E0004E452043414C4C207461726765743A2229
:1015F0000053756263616C6C204F766572666C6F28
:1016000077004578636565646564206D6178205373
:101610005542524F5554494E452064657074683A9E
:101620000057726974696E6720746F2066696C6513
:101630003A20002E0A0044656C6574696F6E20665E
:1016400061696C65642C2046696C653A20004669C6
:101650006C652064656C657465643A00434F4D4D5C
:10166000554E49434154494F4E0044525952554EEC
:10167000004552524F525300494E464F0045434891
:101680004F00506C6561736520526573657400503E
:1016900052494E5445522048414C5445440025532C
:1016A0003A202553004B494C4C45442E20005072A3
:1016B000696E7465722068616C7465642E206B6954
:1016C0006C6C28292063616C6C6564210A00656379
:1016D000686F3A004572726F723A000A4D65617325
:1016E0007572656420706F696E74733A0A0033789E
:1016F00033206D6573682E205A206F66667365749B
:101700003A20004F46460A004661646520486569F4
:101710006768742000426564204C6576656C696E6C
:101720006720004661696C656420746F20656E6196
:10173000626C6520426564204C6576656C696E67F5
:101740000A004D65736820426564204C6576656CBF
:1017500020646174613A0A00496E76616C696420A4
:101760006D6573682E0A00206E6F7420656E746557
:101770007265642E0A0050726F62696E6720506F46
:10178000696E740025532025692F256900206F6636
:1017900020004D424C2047323920706F696E742012
:1017A00000290A004A206F7574206F662072616EEE
:1017B00067652028302D00290A0049206F757420A4
:1017C0006F662072616E67652028302D004D65734D
:1017D000682070726F62696E6720646F6E65004D7D
:1017E0006573682070726F62696E6720646F6E65E2
:1017F0002E0A005374617274206D657368207072D4
:101800006F62696E672077697468202247323920D9
:101810005331222066697273742E0A00473239539D
:1018200032004732380A4732395332006861732038
:101830006E6F20646174612E0A004D6573682042EA
:101840006564204C6576656C696E67200053206F77
:101850007574206F662072616E67652028302D35A3
:10186000292E0A003F28422961756420726174653F
:1018700020696D706C61757369626C652E0A002059
:101880006261756420726174652073657420746F81
:1018900020002053657269616C20002062617564CC
:1018A00020726174652073657420746F200020536A
:1018B000657269616C200020496E76616C696420F4
:1018C0006578747275646572200047322F47332043
:1018D00062616420706172616D65746572730A0083
:1018E000536C6565702E2E2E004D65736820706FE9
:1018F000696E74206F7574206F662072616E676503
:101900000A00436C69636B20746F20526573756DB8
:10191000652E2E2E004E6F204D6F76652E00456E83
:10192000642066696C65206C6973740A004265679F
:10193000696E2066696C65206C6973740A004E6F6D
:10194000206D656469610A00286E6F2066696C65A8
:10195000290043757272656E742066696C653A2061
:10196000005344207072696E74696E6720627974E6
:101970006520004E6F74205344207072696E746944
:101980006E670A00537769746368696E6720746FC5
:101990002042696E6172792050726F746F636F6C50
:1019A0000A0043616E6E6F74206F70656E207375F0
:1019B0006264697220002569730025696D202569BC
:1019C00073002569682025696D20256973002569E4
:1019D00064202569682025696D20256973002569C3
:1019E0007920256964202569682025696D2025698D
:1019F00073005072696E742074696D653A20006FCF
:101A00006B006F6666007D16781671166A165C1696
:101A100044454255473A004D313133205300556C0F
:101A200074696D616B6572204F46462E002F2F0042
:101A30004D31343520533C696E6465783E206F75B6
:101A400074206F662072616E67652028302D312901
:101A50000A00205200416363656C65726174696FAE
:101A60006E3A2050003F4A206F7574206F662072D6
:101A7000616E67652028302E303120746F20302E43
:101A800033290A004D3230362058004F4646004F69
:101A90004E0020580020204D61783A200020002080
:101AA000204D696E3A2000536F667420656E647332
:101AB000746F70733A200046523A0020466C6F777C
:101AC0003A20004D424C2041646A757374205A00DC
:101AD00020643A0020693A0020703A00496E76612D
:101AE0006C69642065787472756465720A00646953
:101AF0007300656E0043290A0061626C65642028EA
:101B00006D696E2074656D702000436F6C64206594
:101B1000787472756465732061726520004D657319
:101B20006820706F696E74206F7574206F66207204
:101B3000616E67650A004D34323120696E636F72E1
:101B40007265637420706172616D65746572207571
:101B5000736167650A00486F6D65202573257325DD
:101B600073204669727374004F66667365747320E0
:101B70004170706C696564004572723A20546F6FF1
:101B8000206661722100546F6F2066617220667258
:101B90006F6D207265666572656E636520706F6932
:101BA0006E740A00454550524F4D204F4B0A002E8F
:101BB0000A002028302D313029002076616C7565AF
:101BC000206F7574206F662072616E6765004164D6
:101BD00076616E6365204B3D004D383400446F6E76
:101BE00065207072696E74696E672066696C650A3B
:101BF000004D3737004D333100496E76616C6964B2
:101C00002065787472756465720A004361703A00E9
:101C10004D4541545041434B00434F4F4C45525F5B
:101C200054454D5045524154555245004348414D4D
:101C30004245525F54454D5045524154555245001E
:101C4000424142595354455050494E470041524336
:101C500053004D4F54494F4E5F4D4F444553005430
:101C60004845524D414C5F50524F54454354494FA3
:101C70004E004C4F4E475F46494C454E414D450046
:101C80004155544F5245504F52545F53445F535443
:101C9000415455530053445F5752495445005245EF
:101CA00050454154005344434152440050524F4D1B
:101CB00050545F535550504F525400484F53545F47
:101CC000414354494F4E5F434F4D4D414E445300A5
:101CD000454D455247454E43595F50415253455239
:101CE00000434153455F4C494748545F425249477E
:101CF00048544E45535300544F47474C455F4C4959
:101D00004748545300534F4654574152455F504F34
:101D1000574552004255494C445F50455243454E49
:101D200054004C4556454C494E475F444154410090
:101D30005A5F50524F42450052554E4F5554004144
:101D400055544F4C4556454C005052494E545F4AED
:101D50004F420050524F4752455353004155544F44
:101D60005245504F52545F54454D50004155544FC9
:101D70005245504F52545F504F5300564F4C554DA3
:101D8000455452494300454550524F4D0042494E3B
:101D90004152595F46494C455F5452414E53464566
:101DA000520053455249414C5F584F4E5F584F4681
:101DB00046004649524D574152455F4E414D453AC6
:101DC0004D61726C696E20322E302E3920284A7592
:101DD0006E20323020323032312031343A32303AD3
:101DE00034382920534F555243455F434F44455F94
:101DF00055524C3A6769746875622E636F6D2F5542
:101E00006C74696D616B65722F4D61726C696E20C7
:101E100050524F544F434F4C5F56455253494F4ECB
:101E20003A312E30204D414348494E455F54595078
:101E3000453A556C74696D616B6572204558545212
:101E4000554445525F434F554E543A3120555549FC
:101E5000443A63656465326132662D343161322DF6
:101E6000343734382D396231322D633535633632AB
:101E70006633363766660A006F6B0A005265736513
:101E80006E643A200020573A00436F6F6C696E67AA
:101E90002E2E2E0048656174696E672E2E2E004529
:101EA0002025530023646566696E652044454641DC
:101EB000554C545F004B6420004B6920004B702050
:101EC00000504944204175746F74756E65206669D1
:101ED0006E6973686564212050757420746865208C
:101EE0006C617374204B702C204B6920616E6420F0
:101EF0004B6420636F6E7374616E74732066726FCF
:101F00006D2062656C6F7720696E746F20436F6E11
:101F100066696775726174696F6E2E680A00504950
:101F200044204175746F74756E65206661696C65D7
:101F300064212074696D656F75740A0050494420EE
:101F40004175746F74756E65206661696C65642196
:101F50002054656D706572617475726520746F6F61
:101F600020686967680A00204B643A2000204B69AA
:101F70003A2000204B703A200020436C6173736953
:101F80006320504944200A002054753A2000204B19
:101F9000753A2000206D61783A2000206D696E3A14
:101FA000200020643A200020626961733A200050CA
:101FB0004944204175746F74756E65207374617245
:101FC000740A00504944204175746F74756E652021
:101FD0006661696C6564212054656D706572617419
:101FE00075726520746F6F20686967680A005049D0
:101FF00044204175746F74756E65206661696C6507
:10200000642120426164206865617465722069649E
:102010000A00504944204175746F74756E6500A1C3
:102020000000006900A20000006300B00000000989
:1020300000C10000004100C20000004100C30000D8
:10204000004100C40000004100C50000004100C67E
:102050000000004145C70000004300C800000045E3
:1020600000C90000004500CD0000004900D100007B
:10207000004E00D50000004F00D60000004F00D7F2
:102080000000007800DC0000005500DD0000005971
:1020900000E00000006100E10000006100E20000DB
:1020A000006100E30000006100E40000006100E561
:1020B0000000006100E60000006165E700000063C9
:1020C00000E80000006500E90000006500EA00008B
:1020D000006500EB0000006500EC0000006900ED09
:1020E0000000006900EE0000006900EF00000069D8
:1020F00000F10000006E00F20000006F00F300002D
:10210000006F00F40000006F00F50000006F00F6A3
:102110000000006F00F80000006F00F9000000757B
:1021200000FA0000007500FB0000007500FC0000D4
:10213000007500FD0000007900FF00000079000438
:10214000010000410005010000610006010000439C
:10215000000701000063000C01000043000D0100B6
:102160000063000E01000044000F01000064001134
:1021700001000064001901000065001A010000451B
:10218000001B01000065001F010000670030010016
:10219000004900310100006900410100004C00428B
:1021A0000100006C00430100004E00440100006E7D
:1021B00000480100006E0058010000520059010063
:1021C0000072005A01000053005B01000073005FC1
:1021D0000100007300600100005300610100007302
:1021E000006501000074006F01000075007C0100B3
:1021F000007A007D0100005A007E0100007A009202
:102200000100006600E30200007800222000002E9A
:10221000001E210000507822210000544D90210022
:10222000003C2D922100002D3EB02100000300BB98
:1022300021000004003C2200007E00482200007EB5
:102240003D60220000213D612200003D006422002B
:10225000003C3D652200003E3DF12300000700A048
:102260003000003D0021F301000200C2F40100052E
:1022700000A2000000EC00B0000000DF00E400005D
:1022800000E100F6000000EF00F7000000FD00FC98
:10229000000000F500E3020000EB0087030000A54A
:1022A000008F030000F40098030000F2009E03007A
:1022B00000E300A3030000F600A9030000F400AC53
:1022C000030000E000AD030000E300B1030000E004
:1022D00000B2030000E200B5030000E300B8030011
:1022E00000F200BC030000E400BE030000E300C0F5
:1022F000030000F700C1030000E600C3030000E58F
:1023000000902100007F00922100007E001A220030
:1023100000E8001E220000F30088250000FF0002F4
:10232000300000A1000C300000A2000D300000A31E
:10233000009B300000DE009C300000DF00A0300079
:10234000003D00A1300000A700A2300000B100A3B2
:10235000300000A800A4300000B200A5300000A9A1
:1023600000A6300000B300A7300000AA00A830008B
:1023700000B400A9300000AB00AA300000B500ABEB
:10238000300000B600AC300000B6DEAD300000B763
:1023900000AE300000B7DEAF300000B800B0300053
:1023A00000B8DEB1300000B900B2300000B9DEB3D1
:1023B000300000BA00B4300000BADEB5300000BB17
:1023C00000B6300000BBDEB7300000BC00B8300003
:1023D00000BCDEB9300000BD00BA300000BDDEBB7D
:1023E000300000BE00BC300000BEDEBD300000BFCB
:1023F00000BE300000BFDEBF300000C000C03000B3
:1024000000C0DEC1300000C100C2300000C1DEC328
:10241000300000AF00C4300000C200C5300000C270
:10242000DEC6300000C300C7300000C3DEC8300085
:1024300000C400C9300000C4DECA300000C500CBB3
:10244000300000C600CC300000C700CD300000C80E
:1024500000CE300000C900CF300000CA00D03000EC
:1024600000CADED1300000CADFD2300000CB00D37A
:10247000300000CBDED4300000CBDFD5300000CC04
:1024800000D6300000CCDED7300000CCDFD83000E2
:1024900000CD00D9300000CDDEDA300000CDDFDB2A
:1024A000300000CE00DC300000CEDEDD300000CE9B
:1024B000DFDE300000CF00DF300000D000E0300071
:1024C00000D100E1300000D200E2300000D300E390
:1024D000300000AC00E4300000D400E5300000AD76
:1024E00000E6300000D500E7300000AE00E8300024
:1024F00000D600E9300000D700EA300000D800EB39
:10250000300000D900EC300000DA00ED300000DBD4
:1025100000EF300000DC00F2300000A600F33000D5
:1025200000DD00F4300000B3DEF7300000DCDEFA3E
:10253000300000A6DEFB300000A500FC300000B03B
:1025400000FD300000A400074E0000FB0086510093
:1025500000FC0043530000FA0064FF0000A4006583
:10256000FF0000A50066FF0000A60067FF0000A7AF
:102570000068FF0000A80069FF0000A9006AFF00D2
:1025800000AA006BFF0000AB006CFF0000AC006D08
:10259000FF0000AD006EFF0000AE006FFF0000AF57
:1025A0000070FF0000B00071FF0000B10072FF007A
:1025B00000B20073FF0000B30074FF0000B40075A8
:1025C000FF0000B50076FF0000B60077FF0000B7FF
:1025D0000078FF0000B80079FF0000B9007AFF0022
:1025E00000BA007BFF0000BB007CFF0000BC007D48
:1025F000FF0000BD007EFF0000BE007FFF0000BFA7
:102600000080FF0000C00081FF0000C10082FF00C9
:1026100000C20083FF0000C30084FF0000C40085E7
:10262000FF0000C50086FF0000C60087FF0000C74E
:102630000088FF0000C80089FF0000C9008AFF0071
:1026400000CA008BFF0000CB008CFF0000CC008D87
:10265000FF0000CD008EFF0000CE008FFF0000CFF6
:102660000090FF0000D00091FF0000D10092FF0019
:1026700000D20093FF0000D30094FF0000D4009527
:10268000FF0000D50096FF0000D60097FF0000D79E
:102690000098FF0000D80099FF0000D9009AFF00C1
:1026A00000DA009BFF0000DB009CFF0000DC009DC7
:1026B000FF0000DD009EFF0000DE009FFF0000DF46
:1026C00000E5FF00005C00000000000102040400BF
:1026D00000001C1C0C0404040201000000000004A3
:1026E000081000000000002D2D2D2D2D2D007C4DFB
:1026F00061726C696E7C002D2D2D2D2D2D00001C1E
:102700001F11111F00000006191803130C00040EFE
:102710001F041C000000000E1315110E00001C10F9
:10272000181705060500040A0A0A0A11110E0C12F0
:10273000120C00000000001F1511151F000042655B
:102740006400456E636C6F73757265002568753A39
:1027500025303268750025303268753A2530326888
:1027600075002D2D2D0053440020202020202020F6
:102770000020202020005072696E742041626F7228
:10278000746564004D32350050617573696E672E53
:102790002E2E004D323400454550524F4D20566587
:1027A0007273696F6E204572726F720045455052A8
:1027B0004F4D20496E646578204572726F720045F6
:1027C0004550524F4D20435243204572726F720064
:1027D0003F0049676E6F726500526573657400490A
:1027E0006E697469616C697A6520454550524F4D38
:1027F0000046696C2E204469612E004520696E20D8
:102800006D6D5E3300416476616E6365204B002020
:10281000022046616374002002204D61780020028E
:10282000204D696E004F6666004F6E004175746FF3
:1028300074656D70005654726176204D696E005655
:102840006D696E00566D6178204500566D61782087
:102850005A00566D6178205900566D6178205800F5
:10286000416D6178204500416D6178205A00416DCD
:102870006178205900416D6178205800412D5472D3
:102880006176656C00412D5265747261637400411C
:102890006363656C00452073746570732F6D6D0004
:1028A0005A2053746570732F6D6D005920537465F1
:1028B00070732F6D6D00582053746570732F6D6D9C
:1028C00000416476616E6365642053657474696E5B
:1028D0006773003F0043616E63656C00496E697405
:1028E000004D34323800496E697469616C697A65EB
:1028F00020454550524F4D0046696C616D656E74C0
:102900000054656D7065726174757265005374650D
:1029100070732F6D6D004A756E6374696F6E20441D
:10292000657600416363656C65726174696F6E0002
:1029300056656C6F636974790053657420486F6DD8
:1029400065204F66667365747300436F6E666967D2
:1029500075726174696F6E004C6576656C696E673F
:1029600020446F6E6521004D6F7665205A00473216
:1029700039533200667265736800646F696E670070
:102980002066696C653A20004E6F7720002F6175D4
:10299000746F25632E67006D61726C696E66772EA9
:1029A0006F7267006D61726C696E66772E6F726709
:1029B000006D61726C696E66772E6F726700322EE1
:1029C000302E3900322E302E3900322E302E390082
:1029D0006D61726C696E66772E6F7267006D6172E1
:1029E0006C696E66772E6F7267006D61726C696ECE
:1029F00066772E6F72670020322E302E390020202D
:102A0000506C616E6E65724275666665724279746D
:102A100065733A20002046726565204D656D6F72C2
:102A2000793A2000436F6D70696C65643A204A758D
:102A30006E20323020323032310A00204C61737403
:102A400020557064617465643A20323032312D3023
:102A5000362D3135207C20417574686F723A2028FC
:102A60004B726973204D2C20554D4F290A00322E90
:102A7000302E390A004D61726C696E0020536F660A
:102A800074776172652052657365740A002057611E
:102A9000746368646F672052657365740A0020422E
:102AA000726F776E206F75742052657365740A00BB
:102AB0002045787465726E616C2052657365740A86
:102AC00000506F77657255700A0073746172740AF2
:102AD000004732385859004D31303031006572723C
:102AE0006F722077726974696E6720746F206669EF
:102AF0006C650A00446F6E6520736176696E6720AD
:102B000066696C652E0A00456E6473746F7073009D
:102B1000255320256320256320256320256300207D
:102B20005A3A0020593A0020583A00656E6473748E
:102B30006F7073206869743A2000004D6F766520CD
:102B400025736D6D004D6F766520302E316D6D00F3
:102B50004D6F766520316D6D004D6F76652031309B
:102B60006D6D004D6F76652041786973004578740E
:102B70007275646572004D6F7665205A004D6F76F0
:102B8000652059004D6F76652058005072696E744B
:102B90002066726F6D204D6564696100000022003F
:102BA000250028002B002E00310034000201000017
:102BB000050108010B0100002100240027002A0064
:102BC0002D003000330001010000040107010A015B
:102BD00005050505070508080808020202020A0A99
:102BE00008080404040401010101010101010303B7
:102BF000030303030303040707070C0C0C0C0C0C62
:102C00000C0C0202020206060606060606060B0B5E
:102C10000B0B0B0B0B0B010210202008081020409F
:102C20001020408002010201080402010102040890
:102C3000102040808040201008040201800402011E
:102C40008040201008040201080402010102040867
:102C5000102040800102040810204080486F6D69F8
:102C60006E67204661696C656400FFFFFF220A0001
:102C7000556E6B6E6F776E20636F6D6D616E643A2B
:102C80002022006F6B00556C74696D616B6572205A
:102C900052656164792E005072696E74696E672E98
:102CA0002E2E005072696E74205061757365640039
:102CB000204500205A00205900204D39322058006C
:102CC000627573793A2070617573656420666F72FE
:102CD00020696E7075740A00627573793A207061AC
:102CE0007573656420666F7220757365720A006281
:102CF0007573793A2070726F63657373696E670AD2
:102D0000004D656469612052656D6F766564004DA4
:102D10006564696120496E73657274656400212180
:102D2000204B494C4C2063617573656420627920A7
:102D3000746F6F206D75636820696E616374697666
:102D4000652074696D65202D2063757272656E74DF
:102D500020636F6D6D616E643A20005046543A698D
:102D60006F6572726F720A005046543A73756363EE
:102D70006573730A005054463A696E76616C6964F3
:102D80000A005046543A737563636573730A0050C2
:102D900046543A696F6572726F720A005046543A2F
:102DA000696E76616C69640A005046543A696E76C1
:102DB000616C69640A005046543A6661696C0A00A5
:102DC0005046543A737563636573730A00504654F2
:102DD0003A627573790A002C003A636F6D70726500
:102DE00073696F6E3A68656174736872696E6B2C93
:102DF000002E002E005046543A76657273696F6E4D
:102E00003A00556E737570706F7274656420426914
:102E10006E6172792050726F746F636F6C0A005527
:102E20006E6B6E6F776E2042696E61727950726F51
:102E3000746F636F6C436F6E74726F6C205061635C
:102E40006B65740A00666500446174617374726531
:102E5000616D2074696D656F75740A00727300523C
:102E60006573656E64207265717565737420006F9B
:102E70006B0029207061796C6F616420636F7272DE
:102E80007570740A005061636B6574280044617446
:102E90006173747265616D207061636B6574206429
:102EA00061746120627566666572206F7665727204
:102EB000756E0A003F2920636F72727570740A0084
:102EC0005061636B657420686561646572280044B5
:102ED00061746173747265616D207061636B657498
:102EE000206F7574206F66206F726465720A006FC0
:102EF0006B002E002E002C002C007373004D31311E
:102F0000322053687574646F776E0053544F50507D
:102F100045442E20005072696E7465722073746F80
:102F2000707065642064756520746F206572726FBF
:102F300072732E2046697820746865206572726FFE
:102F40007220616E6420757365204D3939392074A3
:102F50006F20726573746172742E202854656D70D1
:102F6000657261747572652069732072657365742A
:102F70002E20536574206974206166746572207216
:102F8000657374617274696E67290A004E6F20431D
:102F90006865636B73756D2077697468206C696E02
:102FA00065206E756D6265722C204C617374204CC7
:102FB000696E653A20004D3239004E6F20436865D6
:102FC000636B73756D2077697468206C696E65201A
:102FD0006E756D6265722C204C617374204C696E45
:102FE000653A2000636865636B73756D206D697366
:102FF0006D617463682C204C617374204C696E653C
:103000003A20004C696E65204E756D6265722069CC
:1030100073206E6F74204C617374204C696E652050
:103020004E756D6265722B312C204C617374204C8F
:10303000696E653A20004D31313000536572696127
:103040006C20737461747573206D69736D61746342
:10305000680A0053442072656164206572726F7261
:103060000A00DB0FC93F45BCDA3F8FB30240FCF0DA
:10307000274056946140FE4B9B4084A5D840E023F6
:103080001841346A5641E859974164DBD5416E27AF
:103090001742B4B75542CE1A9742C8AED542B5884A
:1030A0005A43D40684BFA65FA7BF7443E0BF10B1E4
:1030B0001AC01C2C58C0E8F697C0B849D6C04E4E6E
:1030C00017C124D355C1802497C1A0B5D5C1121A08
:1030D00017C244AE55C2781797C26CACD5C2678888
:1030E0005AC320746F6F206C6F6E6720657874729E
:1030F0007573696F6E2070726576656E7465640AAB
:103100000020636F6C6420657874727573696F6EEC
:103110002070726576656E7465640A0020453A0019
:10312000205A3A0020593A00583A0000000A0B028F
:10313000090C0D0E08070304010000000000000048
:10314000000000000000000000000000000000007F
:10315000000000000000001211100000000000003C
:10316000000000000000000000000000000000005F
:10317000004572726F722077726974696E6720748D
:103180006F20454550524F4D210A0000B4F1FBF825
:1031900011241FBECFEFD1E2DEBFCDBF00E00CBFD8
:1031A00014E0A0E0B2E0EEE9FFE002E00BBF02C0F5
:1031B00007900D92AC3EB107D9F729E1ACEEB4E02F
:1031C00001C01D92A433B207E1F718E1C7ECD8E1C2
:1031D00000E006C021970109802FFE010F945504DD
:1031E000C63CD10780E00807A9F70E9435F30D948B
:1031F000BE070C940000FC01938591FD13C09871EB
:1032000021E0903109F020E08091601620FB85F9E3
:1032100080936016903141F08085873419F4818560
:103220008E3711F480E0089581E00895FC0120E0DC
:103230003EE2DB014D91BD01403249F0283011F4EE
:1032400030833196DB0111974C91408331962F5F8B
:103250002B3079F7108208950F931F93CF93DF934C
:10326000CDB7DEB760970FB6F894DEBF0FBECDBF07
:103270008C01DC01ED91FC910280F381E02DBE0117
:103280006F5F7F4F1995882309F464C08981807C22
:10329000C9F56F81637070E0762F6627770F770F1F
:1032A0008885B4E08B9FC0011124682B792B898518
:1032B0008295869586958370682B6F5F7F4F90E02F
:1032C00080E02A852370220F3B8537FB332730F9B6
:1032D000232B3E813F70230F3327331F27503109A3
:1032E00004C0660F771F881F991F2A95D2F7609632
:1032F0000FB6F894DEBF0FBECDBFDF91CF911F9107
:103300000F910895803419F568856695669570E08B
:1033100090E080E0CB01772766272A85622B09851C
:1033200010E0102F0027012E000C220B330B602B16
:10333000712B822B932B6F5F7F4F8F4F9F4F4AE0F4
:10334000660F771F881F991F4A95D1F7D0CF8BE062
:10335000F801848360E070E0CB01C9CFFC01828179
:103360000895FC0190E1A1EFB5E001900D929A95CE
:10337000E1F70895EF92FF920F931F93E09261059A
:10338000F0926205009363051093640560936505F0
:1033900070936605809367059FEFFF27621B730B91
:1033A000840B30F4809570956195790B890B992782
:1033B00090932C06A6E06A9F00922006512DEE27DE
:1033C0007A9F500DE11D8A9FE00D50932106E093F6
:1033D0002206AFE06A9F00922406512DEE277A9FC5
:1033E000500DE11D8A9FE00D50932506E0932606BF
:1033F000AAE06A9F00922806512DEE277A9F500D71
:10340000E11D8A9FE00D50932906E0932A061F9143
:103410000F91FF90EF9008959F92AF92BF92CF923D
:10342000DF92EF92FF920F931F93CF93DF9300D021
:103430001F921F92CDB7DEB7EBEAF7E00027BB275C
:10344000462F572FA82FAA2341F4A52F542FB85F3A
:10345000AA2319F4A52F5527B85FA03138F4529547
:10346000A295452F4F70507FA42BBC5FA03428F449
:10347000550FAA1F550FAA1FBE5FA03818F4550F8D
:10348000AA1FB395550FAA1FEA0FF01F449151E0F0
:10349000AA27B85079F1C0F0B0FF02C0440F551F01
:1034A000B1FF04C0440F551F440F551FB2FF06C0A3
:1034B00052954295142F1F70407F512BB3FF1AC0B5
:1034C000A52F542F442716C0B195B0FF02C05595C3
:1034D0004795B1FF04C05595479555954795B2FF5F
:1034E00005C05295407F4295452B5F70B3FF02C0E7
:1034F000452F5527DD24CC24BB24B2E0649FD0188F
:10350000C108B00AB00B749FC018B108B00B849FFB
:10351000B018B109659FC018B108B00B759FB018FD
:10352000B109859FB0196A9FB018B1097A9FB01987
:103530004D9DA12C99243327992722275D9DA00C0E
:10354000911C301F901F201FAD9D900C311D901FAE
:10355000201F4C9DA00C911C301F901F201F5C9DB4
:10356000900C311D901F201FAC9D300D911D201F10
:103570004B9D900C311D901F201F5B9D300D911DA8
:10358000201FAB9D900D211D4B9F300D911D201FC5
:103590005B9F900D211DAB9F200DB1E0BB24CC247F
:1035A000DD24639FD018C108B00AB00B739FC01808
:1035B000B108B00B839FB018B109699FC018B1085A
:1035C000B00B799FB018B109899FB019629FB018EC
:1035D000B109729FB019D61AC70AB80A20F0B1E033
:1035E0003B0F901F201F1124792F632F90E0822F13
:1035F0000F900F900F900F900F90DF91CF911F9130
:103600000F91FF90EF90DF90CF90BF90AF909F9081
:103610000895CF92DF92EF92FF9280912F05882339
:1036200009F457C0C0902B05D0902C05E0902D05D3
:10363000F0902E0520E030E0A901C701B6010E94FC
:1036400094FD882309F445C020E030E040E05FE3CA
:10365000C701B6010E94F9FD9B01AC010E94F9FD72
:103660002BED3FE049E450E40E94F9FD9B01AC01E1
:1036700060E070E080E89FE30F9452056B017C01ED
:10368000C0922105D0922205E0922305F0922405F4
:1036900060910E0270910F02072E000C880B990B9F
:1036A0000E949AFD2AE037ED43E25CE30E94F9FDB7
:1036B000A70196010E94F9FD609352027093530294
:1036C0008093540290935502FF90EF90DF90CF903B
:1036D0000895C12CD12C80E8E82E8FE3F82ED0CFAE
:1036E0002F923F924F925F926F927F928F929F9212
:1036F000AF92BF92CF92DF92EF92FF920F931F9300
:10370000CF93DF93CDB7DEB762970FB6F894DEBFE5
:103710000FBECDBF788B6F87DC018D909D90AD90F3
:10372000BC90139714962D913D914D915C911797F4
:103730002D833E834F83588720E030E040E251E400
:10374000C501B4010F94750424ED3FE141E35CE34E
:103750000E94F9FD0F94BA0516160CF024C161E021
:10376000E62E660FFF08F701EE0FFF1FEE0FFF1F9B
:10377000EA5CFA4E408051806280738087010F5F5F
:103780001F4F20E030E040E251E46D817E818F8167
:1037900098850F94750424ED3FE141E35CE30E94BA
:1037A000F9FD0F94BA0516160CF001C161E0E62F81
:1037B000660FFF0BFA8BE98BEE0FFF1FEE0FFF1F5B
:1037C000EA5CFA4E208131814281538129833A8318
:1037D0004B835C8329883A883FEF231A330AB70169
:1037E000660F771FAB014E0D5F1D5A874987FA019F
:1037F00089899A89E80FF91FEE0FFF1FEE0FFF1F4F
:10380000E85CFA4FC080D180E280F380F801EE0FCF
:10381000FF1FEE0FFF1FEA5CFA4EA30192016081C9
:103820007181828193810F9475046B877C878D876A
:103830009E87A3019201C501B4010F9475042B0169
:103840003C01C801880F991F080F191FA989BA895F
:10385000A00FB11FAA0FBB1FAA0FBB1FA85CBA4FB6
:10386000A70196016D917D918D919C910F947504A6
:103870002B853C854D855E850F945205A3019201F1
:103880000E94F9FDA70196010F9476046B017C015B
:10389000E985FA85E20DF31DEE0FFF1FEE0FFF1F06
:1038A000E85CFA4F80809180A280B380020D131DE6
:1038B000F801EE0FFF1FEE0FFF1FE85CFA4FA501A6
:1038C000940160817181828193810F9475042B85AD
:1038D0003C854D855E850F945205A30192010E949F
:1038E000F9FDA50194010F947604A70196010F94A8
:1038F00075044B015C01F101EE0FFF1FEE0FFF1F7E
:10390000EA5CFA4E29813A814B815C816081718148
:10391000828193810F9475049B01AC01C501B401B0
:103920000F9452054B015C0129813A814B815C81E6
:103930006D817E818F8198850F9475049B01AC0108
:10394000C501B4010E94F9FDA70196010F94760408
:10395000EF85F88920813181428153810E94F9FDF0
:1039600020915C0530915D0540915E0550915F05A9
:103970000F94760462960FB6F894DEBF0FBECDBFEB
:10398000DF91CF911F910F91FF90EF90DF90CF903B
:10399000BF90AF909F908F907F906F905F904F906F
:1039A0003F902F90089567FFDBCE60E0D9CE67FF90
:1039B000FECE60E0FCCE8F929F92AF92BF92CF92EC
:1039C000DF92EF92FF92CF93DF93EC018090260578
:1039D00090902705A0902805B090290520E030E0C0
:1039E000A901C501B4010E9494FD882309F454C0C3
:1039F000C880D980EA80FB80A7019601C501B40187
:103A00000E9494FD18160CF04CC020911D053091B9
:103A10001E0540911F0550912005C701B6010E9467
:103A200094FD882331F1C0921D05D0921E05E092CD
:103A30001F05F09220052091190530911A0540913B
:103A40001B0550911C05688179818A819B810E94A8
:103A5000F9FD9B01AC0160E070E080E89FE30F940A
:103A6000750460930A0270930B0280930C0290938A
:103A70000D0260910A0270910B0280910C029091EC
:103A80000D02DF91CF91FF90EF90DF90CF90BF902C
:103A9000AF909F908F90089560E070E080E89FE382
:103AA000F0CF60E070E0CB01ECCF0F931F93E62FD7
:103AB000DC01FC910F2F10E030E020E0062E04C066
:103AC00036952795179507950A94D2F700FF1CC0E5
:103AD0000091810510E030E020E004C03695279584
:103AE000179507956A95D2F700FF0EC041E050E0A8
:103AF00060E070E004C0440F551F661F771FEA9511
:103B0000D2F740954F234C931F910F9108958F92B8
:103B10009F92AF92BF92CF92DF92EF92FF92FC0101
:103B2000C080D180E280F38020E030E040E251E4C8
:103B3000C701B6010E94F9FD20E030E040E251E407
:103B40000E94F9FD4B015C0120E030E0A901C701B2
:103B5000B6010E9494FD20E030E040EA50E487FF87
:103B600004C020E030E040EA50ECC501B4010F94FD
:103B7000760420E030E040E251E40F9452050F94C7
:103B8000BA059B018BE237FF05C022273327261B8E
:103B9000370B8DE28093F104C90168EE73E00F9456
:103BA0002604CB01EAE0F0E0BF010F942604805D1B
:103BB0008093F204C90164E670E00F942604CB01FF
:103BC000BF010F942604805D8093F304C901BF01F7
:103BD0000F942604282FCB01BF010F942604805D8B
:103BE0008093F4048EE28093F504205D2093F60424
:103BF00081EF94E0FF90EF90DF90CF90BF90AF9077
:103C00009F908F90089524E6829FC00111248158CF
:103C10009F4F6FEF70E00F942604262F81E36436E8
:103C200009F080E28093F30490E22A3040F03AE019
:103C3000822F632F0F94F9030F94F903905D9093F3
:103C4000F404822F6AE00F94F903905D9093F504D9
:103C500085E28093F60483EF94E0089560910E026C
:103C600070910F02072E000C880B990B0E949AFD91
:103C70002AE037ED43E25CE30E94F9FD2091210543
:103C80003091220540912305509124050E94F9FDB1
:103C900060935202709353028093540290935502A2
:103CA000089580913607811104C080911407809394
:103CB000D4080895809155168823C1F081508093CF
:103CC0005516EEEAF4E1882351F08150990B2BE16F
:103CD000289FF001299FF00D1124E95BFA4E8BE13A
:103CE000A3E9B4E101900D928A95E1F72091551670
:103CF000211105C08091601680648093601681E078
:103D000090E0A0E0B0E0211103C080E090E0DC0191
:103D100080931E0790931F07A0932007B09321075D
:103D20001092180781E080932E0783E0809342026F
:103D30000895CF93DF93EC01CB01BA010E949AFD65
:103D400029EC38EC48EC5EE30F94520520E030E0BB
:103D500040E05FE30F9476040F94BF056883DF9122
:103D6000CF9108950E949AFD29EC38EC48EC5EE36F
:103D70000F94520520E030E040E05FE30F947604BA
:103D80000F94BF05862F3FCFE091360784E0E8020D
:103D9000F0011124E05DFA4F8091140790E09383C5
:103DA00082830895CF93DF93EC01CB01BA010E9487
:103DB0009AFD688379838A839B83DF91CF910895ED
:103DC000CF93C82FCB010E9470928BE295E00E94A6
:103DD00070928CE195E0CC2311F081E295E00E9495
:103DE00070928AE0CF910C946E920F931F93CF93B1
:103DF000811113C0C42F8B010E94AB9888E199E018
:103E00000E947092C8010E947092CC2331F08AE027
:103E1000CF911F910F910C946E92CF911F910F91A2
:103E20000895CF93DF93C0915707D09158072097FB
:103E300029F1609153077091540780915507909133
:103E400056070F94BA056E5F7F4F24976C177D0756
:103E5000ACF470931806609317060E9466D1605EFA
:103E6000714B8F4F9F4F6093190670931A06809382
:103E70001B0690931C06DF91CF91089510921906AE
:103E800010921A0610921B0610921C06F4CFC9CF8E
:103E9000C8CFCF93DF93EC018D810E94849F60E0B7
:103EA0008B81DF91CF910C94D1CFDF92EF92FF9273
:103EB0000F931F93CF93DF938C01C62FD22FF32E36
:103EC000E42ED52EE6DF0E9472D18C2F80640E94F2
:103ED000789F8D2D0E94789F8E2D0E94789F8F2D28
:103EE0000E94789F8D2F0E94789F87E8C11101C0A2
:103EF00085E90E94789FCC3011F40E947D9FC0E03C
:103F00000E947D9FF801868387FF04C0CF3F11F098
:103F1000CF5FF6CFDF91CF911F910F91FF90EF9080
:103F2000DF90089561E0FC0183810E94D1CF8FEF83
:103F30000C94789F0F931F93CF938C01AADF0E945C
:103F400072D1C82F882369F08DEF0E94789F0E945C
:103F500072D1C82FC801E6DF8C2FCF911F910F912E
:103F6000089582E1F8018483F5CF8F929F92AF92FA
:103F7000BF92CF92DF92EF92FF920F931F93CF9356
:103F8000DF93EC016A017B01590120E030E0A901D7
:103F900067E38BDFA501980167E1CE0186DF811120
:103FA00025C08F81833039F089E0CC0CDD1CEE1CFC
:103FB000FF1C8A95D1F7A701960169E1CE0175DF53
:103FC00011E0882319F010E087E08C83CE01AADF8E
:103FD000812FDF91CF911F910F91FF90EF90DF9094
:103FE000CF90BF90AF909F908F90089589E08C8381
:103FF00010E0ECCFCF93DF93EC016EBDFA01CA0164
:104000009E5F0DB407FEFDCF20812EBD0DB407FECF
:10401000FDCF21812EBD3296E817F90791F70DB437
:1040200007FEFDCF8FEF0E94789F8FEF0E94789F51
:104030000E947D9F8E838F71853041F083E18C8358
:10404000CE0170DF80E0DF91CF91089581E0FBCF5A
:104050000F931F93CF93DF93EC018B011ADF0E9424
:1040600072D181110BC085E18C8310E0CE015ADF43
:10407000812FDF91CF911F910F910895A8016CEFCF
:10408000CE01B8DF182F882371F3F0CF0F931F9361
:10409000CF93DF93EC0189018F81833039F089E080
:1040A000440F551F661F771F8A95D1F79A01AB0100
:1040B00068E1CE01FADE811127C0A8016EEFCE01C2
:1040C00099DF182F8823A9F00E9472D1182F882316
:1040D000C1F020E030E0A9016DE0CE01E6DE8823EA
:1040E00021F086E18C8310E004C00E947D9F811145
:1040F000F8CFCE0117DF812FDF91CF911F910F9164
:10410000089587E18C83F5CF86E0ECCF1F93CF93A2
:10411000DF93EC01BEDE20E030E0A9016CE0CE01CF
:10412000C4DE11E0882319F010E083E08C83CE0117
:10413000F9DE812FDF91CF911F9108951F93CF93C7
:10414000DF93EC018F81833039F089E0440F551FF4
:10415000661F771F8A95D1F79A01AB0162E1CE0104
:10416000A4DE11E0882319F010E085E08C83CE01F5
:10417000D9DE812FDF91CF911F9108958F929F9269
:10418000AF92BF92EF92FF920F931F93CF93DF9363
:104190008C01EB017A010E9466D14B015C012CE29B
:1041A000820E21E0921EA11CB11C0E947D9FF8018D
:1041B00086838F3F69F40E9466D1681979098A095C
:1041C0009B0997FDF2CF81E1F8018483C0E021C013
:1041D0008E3F69F5F1E0EF1AF1088FEF8EBDFE0119
:1041E0002FEF0DB407FEFDCF8EB581932EBDCF010D
:1041F0008C1B9D0B8E159F05A0F30DB407FEFDCF04
:104200008EB5CE0DDF1D88830E947D9F0E947D9F0D
:10421000C1E0C80187DE8C2FDF91CF911F910F91F4
:10422000FF90EF90BF90AF909F908F9008958FE098
:10423000CBCF0F931F93CF93DF93EC018B0129DE3C
:1042400040E052E0B801CE01DF91CF911F910F9174
:1042500095CF0F931F93CF93DF93EC0189018F814B
:10426000833039F089E0440F551F661F771F8A9508
:10427000D1F79A01AB0161E1CE0117DE811109C0CE
:1042800040E052E0B801CE01DF91CF911F910F9134
:1042900075CF84E08C83CE0145DE80E0DF91CF9145
:1042A0001F910F9108958F929F92AF92BF92CF92DC
:1042B000DF92EF92FF920F931F93CF93DF93EC0166
:1042C000162F1F821C824B830E9466D16B017C01DA
:1042D00020EDC20E27E0D21EE11CF11CA89561E082
:1042E0008B810E94D1CF8B810E94FCCB209A289A8F
:1042F000219A2398229A81E00E94849F85E08D83F1
:104300000E94849F0AE08FEF0E94789F0150D9F7A6
:10431000A89520E030E0A90160E0CE01C6DD8E83E3
:10432000813079F00E9466D16C197D098E099F0950
:1043300097FDEFCF81E08C83CE01F4DD1A8280E01F
:1043400065C0A8952AEA31E040E050E068E0CE017F
:10435000ACDD853031F581E08F83A8958F81812C8C
:10436000912C5401823029F4812C912CA12C80E4D1
:10437000B82E20E030E0A90167E3CE0196DDA5016B
:10438000940169E2CE0191DD8E838823F1F00E94D1
:1043900066D16C197D098E099F0997FDEACF8AE0E5
:1043A000CACF04E00E947D9F8E830150D9F78A3ADC
:1043B00011F482E0D1CF0E9466D16C197D098E097B
:1043C0009F0997FDBFCF82E0B6CF8F818230B9F4CD
:1043D00020E030E0A9016AE3CE0167DD882311F017
:1043E00088E0A9CF0E947D9F807C803C11F483E00F
:1043F0008F830E947D9F0E947D9F0E947D9FCE01A2
:1044000091DD81E08A83173070F41D83DF91CF91B5
:104410001F910F91FF90EF90DF90CF90BF90AF90E2
:104420009F908F90089588E18C8389CF0F931F937D
:10443000CF93DF93EC018B0120E030E0A90169E02C
:1044400034DD811109C040E150E0B801CE01DF91B7
:10445000CF911F910F9192CE80E18C83CE0162DDCE
:1044600080E0DF91CF911F910F91089540916005F9
:1044700021E042276CE070E00C9460C4409160053C
:1044800021E0422764E070E00C9460C44091600534
:1044900021E0422761E070E00C9460C44091600527
:1044A00021E0422762E070E00C9460C44091600516
:1044B00021E0422761E070E00C9460C44091600507
:1044C00021E0422768E070E00C9460C440916005F0
:1044D00021E042276CE070E00C9460C441E061E0B0
:1044E00070E00C9460C44091600521E042270C9478
:1044F00060C462E070E00C94FFD06CE070E00C945B
:10450000FFD064E070E00C94FFD061E070E00C94A8
:10451000FFD061E070E00C94FFD06CE070E00C9490
:10452000FFD061E084E197E00C940C8D20E040E046
:1045300070E060E08DE49EE40E94117681E080935B
:104540004E071092EF041092EE04089520E040E030
:1045500070E060E085E993E20C94117621E020930D
:104560004E07FC0180819181A281B381809300027A
:1045700090930102A0930202B093030220E040E076
:1045800070E060E080911207909113070C9411760F
:10459000CF93DF9300D01F92CDB7DEB78DEC9CECAC
:1045A000ACECBCE389839A83AB83BC83CE010196D8
:1045B000D5DF0F900F900F900F90DF91CF9108955E
:1045C000CF93DF9300D01F92CDB7DEB78DEC9CEC7C
:1045D000ACECBDE389839A83AB83BC83CE010196A7
:1045E000BDDF0F900F900F900F90DF91CF91089546
:1045F000CF93DF9300D01F92CDB7DEB780E090E07D
:10460000A0E8BFE389839A83AB83BC83CE01019684
:10461000A5DF0F900F900F900F90DF91CF9108952D
:10462000CF93DF9300D01F92CDB7DEB780E090E04C
:10463000A0E2B1E489839A83AB83BC83CE01019667
:104640008DDF0F900F900F900F90DF91CF91089515
:1046500081E080934E071092FC041092810520E0C7
:1046600040E070E060E083E996E20E9411768AEA19
:1046700094E09093CC068093CB0608950C946476D6
:104680000F931F93CF93DF9300D000D000D01F92E1
:10469000CDB7DEB7809142028823F1F01F9289E006
:1046A0008F938091ED0490E001969F938F9388E71C
:1046B00092E09F938F938E010F5F1F4F1F930F9375
:1046C0000E942DFDB8018DE692E00E94EB7C0FB6B2
:1046D000F894DEBF0FBECDBF84E08093420280918C
:1046E000EC04811108C020E040E070E060E08BE263
:1046F0009DE70E9411762A960FB6F894DEBF0FBE92
:10470000CDBFDF91CF911F910F9108956BE776E2B6
:1047100082E00C94B3EF6FE776E281E00C94B3EFA4
:1047200063E876E280E00C94B3EF6BE274E283E03E
:104730000C94B3EFCF92DF92EF92FF920F931F93FF
:1047400084E3C82E84E0D82EF12CE12C06E314E09B
:104750002EE333E246EA52E266E474E08BE494E04E
:104760000E947F7B1F910F91FF90EF90DF90CF9081
:104770000895AF92BF92CF92DF92EF92FF920F9384
:104780001F93CF93DF93CDB7DEB7ADB6BEB68091A2
:10479000C1116BE377E0882311F061EC71E1FB015B
:1047A00001900020E9F7CF01861B970B01962DB7EA
:1047B0003EB7281B390B0FB6F8943EBF0FBE2DBF76
:1047C0008DB79EB701967C0180E2EDB7FEB781837D
:1047D000C70101960F948F078AEFC82E83E0D82E69
:1047E0000CEF13E02EE333E243E357E268E074E0BA
:1047F0008FE094E00E947F7B0FB6F894BEBE0FBEA0
:10480000ADBEDF91CF911F910F91FF90EF90DF90A0
:10481000CF90BF90AF900895CF92DF92EF92FF922A
:104820000F931F938DE6C82E83E0D82EF12CE12C38
:1048300007ED13E02EE333E24FE856E76FE673E04F
:1048400084E793E00E947F7B1F910F91FF90EF9090
:10485000DF90CF900895CF93DF9300D01F92CDB714
:10486000DEB780910D0710920D07882359F0109242
:104870004E070E9464760F900F900F900F90DF917B
:10488000CF91089560911E0770911F0780912007B6
:1048900090912107611571058105910561F10E94D3
:1048A0009AFD209100023091010240910202509144
:1048B00003020E94F9FD2091441430914514409167
:1048C0004614509147140F947604609344147093E7
:1048D0004514809346149093471483E00E94917589
:1048E00081E08093420210921E0710921F071092DF
:1048F00020071092210780914202882309F4BBCF40
:1049000020910E0730910F07409110075091110729
:10491000609144147091451480914614909147140D
:104920000F94750469837A838B839C83CE010196EF
:10493000EED8BC018DE69BE20E94EB7C9CCF3F92BF
:104940004F925F926F927F928F929F92AF92BF929F
:10495000CF92DF92EF92FF920F931F93CF93DF934B
:10496000CDB7DEB72C970FB6F894DEBF0FBECDBF24
:104970009C878B87362E80910D0710920D07882318
:10498000E1F010924E070E9464762C960FB6F894D0
:10499000DEBF0FBECDBFDF91CF911F910F91FF9072
:1049A000EF90DF90CF90BF90AF909F908F907F90CF
:1049B0006F905F904F903F90089560911E077091A7
:1049C0001F078091200790912107611571058105CE
:1049D000910509F457C020911202222309F4B4C0B2
:1049E000209113022111B0C021E0321609F48AC0CF
:1049F000A2E03A1609F497C0C0901402D0901502B4
:104A0000E0901602F0901702409020025090210290
:104A100060902202709023020E949AFD2091000271
:104A20003091010240910202509103020E94F9FD6F
:104A30006F83788789879A87B4E03B9E8001112431
:104A4000F801E85CFB4EFE83ED83208131814281D9
:104A500053810F9476044B015C01A3019201C701BD
:104A6000B6010E9494FD81117EC0F801E85CFB4E06
:104A700080829182A282B382832D0E94917581E00F
:104A80008093420210921E0710921F071092200777
:104A90001092210780914202882309F476CFF4E036
:104AA0003F9EC0011124FC01E85CFB4E885B9B4EDD
:104AB000DC012D913D914D915C91608171818281EC
:104AC00093810F9476046B017C01C982DA82EB82B8
:104AD000FC822DEC3CEC4CEC5DE3609100027091AB
:104AE000010280910202909103020F949D0687FDBE
:104AF00065C0CE0101960BD8BC018B859C850E94B8
:104B0000EB7C43CFC0901802D0901902E0901A02BB
:104B1000F0901B02409024025090250260902602E3
:104B20007090270279CFC0901C02D0901D02E090B7
:104B30001E02F0901F0240902802509029026090BF
:104B40002A0270902B0268CF412C20E5522E23ECD4
:104B5000622E27E4722EC12C30E5D32E33ECE32EE7
:104B600037ECF32E59CF20E030E0A9016F81788532
:104B700089859A850E9494FD87FF10C0A701960140
:104B8000C501B4010E9494FD87FF6FCFAD81BE8146
:104B9000CD92DD92ED92FC9213976ECFA30192011C
:104BA000C501B4010F949D0618160CF05ECFED817F
:104BB000FE8140825182628273825ECF20E030E0CB
:104BC00040E251E4C701B6010E94F9FD20E030E067
:104BD0004AE754E40E94F9FD4B015C0120E030E01B
:104BE000A901C701B6010E9494FD20E030E040EA2F
:104BF00050E487FF04C020E030E040EA50ECC501FB
:104C0000B4010F94760420E030E040E251E40F94C8
:104C100052050F94BA056B017C01F7FC62C020EAD3
:104C200036E841E050E00F943904CA01B9012AE0A6
:104C300030E040E050E00F943904605D6093F00490
:104C4000C701B60120E137E240E050E00F9439049B
:104C50008AE0882E912CA12CB12CCA01B901A501A2
:104C600094010F943904605D6093F104C701B601AB
:104C700028EE33E040E050E00F943904CA01B90156
:104C8000A50194010F943904605D6093F2048EE2F3
:104C90008093F304C701B60124E630E040E050E021
:104CA0000F943904CA01B901A50194010F94390484
:104CB000605D6093F404C701B601A50194010F94EF
:104CC0003904162FCA01B901A50194010F943904C2
:104CD000605D6093F504105D1093F60480EF94E03E
:104CE0000BCFF094E094D094C094C11CD11CE11C73
:104CF000F11C6DE2A3CF62E086E79BE220CE61E08B
:104D00008DE79BE21CCE60E084E89BE218CE69E967
:104D10007EE182EB9EE10C94E87D62ED7EE180E332
:104D20009BE50C94E87D80914202882331F041E0BC
:104D30006BE972E081E00E9435CC8091810587703B
:104D4000873041F420E040E070E060E080E999E6DF
:104D50000C94117608954AE00E94D0C38DE00E9421
:104D600067C38AE00C9467C38BE1EEEAF4E1A3E940
:104D7000B4E101900D928A95E1F7E0E6F6E18081D9
:104D8000806480830895BC018EE795E10E94959F21
:104D90008BE795E10C9470928091601684FF04C0BB
:104DA0008460877F809360160895CF92DF92EF92A0
:104DB000FF920F931F93CF93DF93CDB7DEB7EDB67E
:104DC000FEB6DC010D900020E9F79D01281B390B90
:104DD000285F3F4FEDB7FEB7E21BF30B0FB6F89419
:104DE000FEBF0FBEEDBF0DB71EB70F5F1F4F9F93E6
:104DF0008F9384E795E19F938F931F930F930E9466
:104E00002DFD6801F4E0CF0ED11C0F900F900F9094
:104E10000F900F900F90D6018D916D01882349F06E
:104E2000082E000C990B0F944807F60131978083E8
:104E3000F2CF6FE675E1C8010E94C6FC4FE350E077
:104E4000B8018DEC96E00F94A4070FB6F894FEBE5F
:104E50000FBEEDBEDF91CF911F910F91FF90EF90AC
:104E6000DF90CF9008958BE397E09FDF0E944E760E
:104E70000C9478CBEF92FF920F931F93CF93DF9315
:104E8000CDB7DEB7A0970FB6F894DEBF0FBECDBF8B
:104E90007C018B01BE016F5F7F4FC7010E9488C8F4
:104EA0001816A4F4CE0101960E94FB18882391F3F2
:104EB000BE016F5F7F4F8BE397E00E9416196BE393
:104EC00077E0C8010F946607892B21F7A0960FB6EB
:104ED000F894DEBF0FBECDBFDF91CF911F910F9130
:104EE000FF90EF900895CF9380913514C1E088230F
:104EF000C9F0809136149091371440912D1450913F
:104F00002E1460912F1470913014DC01ED91FC91FE
:104F10000288F389E02D2DE232E11995C82F811125
:104F200004C0C0E08C2FCF9108954091311450916E
:104F30003214609133147091341441155105610598
:104F40007105B9F08091361490913714DC01ED9120
:104F5000FC910288F389E02D2DE232E11995882336
:104F600001F31092311410923214109233141092F3
:104F7000341410923514D6CFCF92DF92EF92FF9275
:104F8000CF936B017C01C42F80912D1490912E142E
:104F9000A0912F14B09130148C159D05AE05BF055E
:104FA00021F1A1DF811108C0C0E08C2FCF91FF90CB
:104FB000EF90DF90CF900895809136149091371440
:104FC000DC01ED91FC910088F189E02D2DE232E1C8
:104FD000B701A6011995882339F3C0922D14D092F8
:104FE0002E14E0922F14F0923014CC2321F081E0A3
:104FF00080933514DACFC1E0D8CF4F925F926F9291
:105000007F928F929F92AF92BF92CF92DF92EF9258
:10501000FF920F931F93CF93DF93EC014230510522
:105020006105710590F480E0DF91CF911F910F91A0
:10503000FF90EF90DF90CF90BF90AF909F908F90B8
:105040007F906F905F904F90089589859A85AB858A
:10505000BC850196A11DB11D84179507A607B7074A
:1050600010F38F898031C1F5852E962EA72EBB2493
:105070008B899C89AD89BE89880E991EAA1EBB1E8C
:10508000280139016A017B0141E0C501B40174DFE7
:10509000882349F29F89903181F5DD24EE24FF2495
:1050A000F601EE0FFF1FE35DFD4E118300839A8929
:1050B000923008F4B9CF4D815E816F817885840E7E
:1050C000951EA61EB71E8092311490923214A092A3
:1050D0003314B0923414A8CF803209F0A4CF8B8956
:1050E0009C89AD89BE894A015B01E7E0B694A7942B
:1050F00097948794EA95D1F7BFCFE894C7F8DD2459
:10510000EE24FF24F601EE0FFF1FEE0FFF1FE35DFD
:10511000FD4E4082518262827382C9CFCF92DF926C
:10512000EF92FF920F931F93CF93DF93FC01818542
:105130009285A385B4850196A11DB11D841795079D
:10514000A607B70750F480E0DF91CF911F910F9130
:10515000FF90EF90DF90CF90089587898031A9F577
:10516000BB27A72F962F852FC388D488E588F6887C
:105170008C0D9D1DAE1DBF1DE9016A017B018F01D4
:1051800040912D1450912E1460912F147091301471
:1051900084179507A607B70749F5F8018789803175
:1051A00061F5B701A601552766277727440F551FDC
:1051B000435D5D4EFA0180819181B0E0A0E088837B
:1051C0009983AA83BB8381E0BFCF803209F0BBCF34
:1051D000C388D488E588F688DB01CA01C7E0B695A4
:1051E000A79597958795CA95D1F7C2CF40E0BC01A6
:1051F000CD01C2DE8111D1CFA6CFB701A6014F7775
:10520000552766277727440F551F440F551F435DC9
:105210005D4EFA0180819181A281B381BF70CFCFB1
:105220004F925F926F927F92AF92BF92CF92DF9236
:10523000EF92FF920F931F93CF93DF9300D01F92B3
:10524000CDB7DEB78C0149835A836B837C835901C8
:10525000C12CD12C7601412C82E0582E612C712C6E
:1052600049815A816B817C819E012F5F3F4FC8012C
:1052700055DF882319F1F8018585A301920104C047
:10528000220F331F441F551F8A95D2F7DA01C90137
:10529000C80ED91EEA1EFB1E49815A816B817C8192
:1052A00087898031F1F481E0483F5F4F61057105E6
:1052B000B8F2F501C082D182E282F3820F900F90A2
:1052C0000F900F90DF91CF911F910F91FF90EF9072
:1052D000DF90CF90BF90AF907F906F905F904F9096
:1052E000089581E0483F5F4F6F4F7F4008F4B8CF8B
:1052F000E0CF0F931F93CF93DF93FC0123812223F1
:1053000031F080E0DF91CF911F910F9108958B01D3
:10531000EC01FB018789803139F582E08B831D8A9E
:105320001E8A1F8A188E808D918DB0E0A0E025E046
:10533000880F991FAA1FBB1F2A95D1F7898B9A8BBB
:10534000AB8BBC8B1A8F098F81E0898318861986F5
:105350001A861B861C821D821E821F82188A1C864A
:105360001D861E861F86CECF803259F683E08B8342
:10537000428D538D648D758D4D8B5E8B6F8B788FC9
:105380009E012F5E3F4FC8014BDF8111DBCFB9CFAC
:10539000CF93DF93EC01462F41706C857D858E8520
:1053A0009F85EADD882351F0888920E2829FC00131
:1053B0001124835D9D4EDF91CF91089590E080E0B0
:1053C000FACFCF93DF93EC018991882319F00E94E3
:1053D00067C3FACFDF91CF910895CF93DF93EC01AC
:1053E0008B81882339F1898187FF21C061E0CE015B
:1053F000CFDFFC01892BF1F08081853ED9F08B81D4
:10540000823040F489899A89AB89BC89848F958FD1
:10541000A68FB78F8D899E89938F828F8D899E8964
:10542000AF89B88DB58BA48B89818F778983DF9104
:10543000CF9159CD81E0888380E0DF91CF910895AD
:105440008F929F92AF92BF92CF92DF92EF92FF9294
:105450000F931F93CF93DF93EC018B8181110EC0CB
:1054600080E0DF91CF911F910F91FF90EF90DF903F
:10547000CF90BF90AF909F908F90089509891A891F
:105480002B893C89041715072607370748F34A017B
:105490005B01823031F488869986AA86BB8681E0DA
:1054A000E0CF81149104A104B10449F4188619864F
:1054B0001A861B861C821D821E821F82F0CF0885E1
:1054C00019852A853B85E98DFA8D858590E00996B9
:1054D000B901A8014150510961097109082E04C0A0
:1054E00076956795579547950A94D2F775016401AB
:1054F000E1E0CE1AD108E108F10804C0F694E7947F
:10550000D794C7948A95D2F7C416D506E606F7064F
:1055100020F0012B022B032B09F58D899E89AF8981
:10552000B88D8C839D83AE83BF838E010C5F1F4F2C
:10553000C114D104E104F10409F4ADCF4C815D81C3
:105540006E817F819801898D9A8DE8DD91E0C91A7D
:10555000D108E108F1088111EBCF82CFC41AD50A36
:10556000E60AF70AE2CF2F923F924F925F926F9234
:105570007F928F929F92AF92BF92CF92DF92EF92E3
:10558000FF920F931F93CF93DF93EC014B017A01AE
:105590008B81811115C08FEF9FEFDF91CF911F910C
:1055A0000F91FF90EF90DF90CF90BF90AF909F90C2
:1055B0008F907F906F905F904F903F902F900895C5
:1055C000898180FFE8CF89899A89AB89BC89488520
:1055D00059856A857B85841B950BA60BB70BA701A4
:1055E00070E060E084179507A607B70708F47C0110
:1055F00067011E0124E0220E311CC114D10409F4FC
:10560000A7C0488559856A857B855A0181E0B82203
:10561000898D9A8D2A013B0129E0769467945794ED
:1056200047942A95D1F72B81FC01223079F5628DC0
:10563000738D848D958D640D751D861D971D00E0FD
:1056400012E00A191B09C016D10608F486010115DB
:10565000E2E01E0771F440902D1450902E146090DB
:105660002F1470903014641575058605970509F0A0
:105670004CC040E081DC882309F48DCFB501635D27
:105680007D4EA801C4010F945D0751C014811150D3
:105690001421A114B10471F411110CC0452B462B37
:1056A000472B51F58D899E89AF89B88D8C839D8359
:1056B000AE83BF83E98DFA8D4C805D806E807F80E4
:1056C00022E0421A510861087108858504C0440C23
:1056D000551C661C771C8A95D2F786859785A0890C
:1056E000B189480E591E6A1E7B1EC301B201610FAB
:1056F000711D811D911DA3CF4C815D816E817F81C4
:1057000091010CDD8111D6CF46CFA0913614B09116
:105710003714ED91FC9111970088F189E02D9401E7
:10572000AB01BC01CD011995882309F434CF800E5B
:10573000911E88859985AA85BB85800F911FA11D23
:10574000B11D88879987AA87BB87C01AD10A55CF10
:10575000C70123CFCF93DF93EB01FC0123812111FC
:1057600004C080E0DF91CF9108952250223028F4C8
:105770008FE28883198281E0F5CF60E009DE00972F
:1057800081F3DC0160E080E09EE22D91203299F00F
:10579000883031F49E01260F311DF90190836F5F2F
:1057A0009E01260F311DAD0141505109FA01408182
:1057B000F90140836F5F8F5F8B3039F7FE01E60F91
:1057C000F11D1082D8CFCF93DF93EC01CB01E8819C
:1057D000F98160817181BEDF28813981D901ED9124
:1057E000FC91AA81BB818C919081992359F08936D3
:1057F000C8F4CF010196F901918380838C918F5F6A
:105800008C93EACF893670F48FE28083E881F98146
:1058100080819181019691838083EA81FB818081DF
:105820008F5F8083DF91CF910895CF93DF93EC0159
:10583000D4DD1B82DF91CF910895809160168F7720
:10584000809360160E94488E882319F08AE594E1BF
:10585000ECCF08958091601682FF0CC087FD0AC0CE
:10586000806880936016809160168F7E806480933C
:1058700060160895E2DFF7CFCF93DF938091601633
:105880008F7E809360168091B114882319F08EEA80
:1058900094E1CBDF8091621690916316DC01ED916B
:1058A000FC910190F081E02D45E360E019958111B4
:1058B00011C00E94AB9883E695E10E94709280919E
:1058C000601684FF32C050DA83E080934202DF9199
:1058D000CF910895C0916216D091631661E0CE0118
:1058E0000E9468C581110BC060E0CE010E9468C5AE
:1058F000811105C00E944F988FE495E1DECF65E7E6
:1059000074E18EEA94E1F5DC811105C00E944F98A4
:105910008EE395E1D2CF809160168061809360160E
:105920000E94AB9882E395E1C8CF8091AF088823AD
:1059300059F26FEF85E295E10E940875C5CF3F925D
:105940004F925F926F927F928F929F92AF92BF928F
:10595000CF92DF92EF92FF920F931F93CF93DF933B
:10596000CDB7DEB72C970FB6F894DEBF0FBECDBF14
:105970005C01DC0159968D909C90F40181859285A3
:10598000A385B4859C01AD012F5F3F4F4F4F5F4F03
:1059900029873A874B875C87D50114964D905D9097
:1059A0006D907C901797411451046104710409F4BF
:1059B00058C0BFEF4B1A5B0A6B0A7B0A312C73018C
:1059C00062011D821E821F821886F40181859285E4
:1059D000A385B4852D813E814F81588528173907CD
:1059E0004A075B0708F054C089859A85AB85BC855A
:1059F0008C159D05AE05BF0550F482E0C82ED12C54
:105A0000E12CF12C92E0492E512C612C712C9E013D
:105A10002F5F3F4FB701A601C40180DB8823C1F18E
:105A200089819A81AB81BC81892B8A2B8B2B01F1D7
:105A3000260137019FEF491A590A690A790A2D810F
:105A40003E814F8158852F5F3F4F4F4F5F4F2D83D2
:105A50003E834F8358873FEFC31AD30AE30AF30A02
:105A6000B4CF408051806280738033243394A7CFB9
:105A7000C414D504E604F70411F70FEF1FEF2FEF5E
:105A80003FE0B701A601C401B8DA782E81111AC02F
:105A9000712C872D2C960FB6F894DEBF0FBECDBFAC
:105AA000DF91CF911F910F91FF90EF90DF90CF90FA
:105AB000BF90AF909F908F907F906F905F904F902E
:105AC0003F900895F50144815581668177814115A4
:105AD00051056105710531F097018601C4018DDA28
